:020000040800F2
:1000000000500020813200088D3100088F31000837
:10001000913100089331000895310008000000007C
:100020000000000000000000000000009731000800
:1000300099310008000000009B3100089D31000844
:10004000C9320008C9320008C9320008C9320008A4
:10005000C9320008C9320008C9320008C932000894
:10006000C9320008C9320008C9320008C932000884
:10007000C9320008C9320008C9320008C932000874
:10008000C9320008C9320008C9320008C932000864
:10009000C9320008C9320008C9320008C932000854
:1000A000C9320008C9320008C9320008C932000844
:1000B000C9320008C9320008C9320008C932000834
:1000C000C9320008C9320008C9320008C932000824
:1000D000C9320008C9320008AD310008C932000831
:1000E000C9320008C9320008C93200080000000007
:1000F0000000000000000000000000000000000000
:0C01000000000000000000005FF808F1A3
:1001100010B5054C237833B9044B13B10448AFF341
:1001200000800123237010BD600200200000000049
:10013000883F000808B5034B1BB103490348AFF3E0
:10014000008008BD0000000064020020883F000815
:1001500010F8012B11F8013B012A28BF9A42F7D071
:10016000D01A7047034613F8012B002AFBD1181A46
:100170000138704781F0004102E000BF83F0004386
:1001800030B54FEA41044FEA430594EA050F08BF32
:1001900090EA020F1FBF54EA000C55EA020C7FEAF6
:1001A000645C7FEA655C00F0E2804FEA5454D4EB73
:1001B0005555B8BF6D420CDD2C4480EA020281EA3D
:1001C000030382EA000083EA010180EA020281EA75
:1001D0000303362D88BF30BD11F0004F4FEA0131C7
:1001E0004FF4801C4CEA113102D0404261EB4101D6
:1001F00013F0004F4FEA03334CEA133302D052425C
:1002000063EB430394EA050F00F0A780A4F1010417
:10021000D5F1200E0DDB02FA0EFC22FA05F2801851
:1002200041F1000103FA0EF2801843FA05F3594137
:100230000EE0A5F120050EF1200E012A03FA0EFCB6
:1002400028BF4CF0020C43FA05F3C01851EBE371E0
:1002500001F0004507D54FF0000EDCF1000C7EEBFD
:1002600000006EEB0101B1F5801F1BD3B1F5001F3B
:100270000CD349085FEA30004FEA3C0C04F101045A
:100280004FEA445212F5800F80F09A80BCF1004F83
:1002900008BF5FEA500C50F1000041EB045141EA05
:1002A000050130BD5FEA4C0C404141EB010111F406
:1002B000801FA4F10104E9D191F0000F04BF0146B1
:1002C0000020B1FA81F308BF2033A3F10B03B3F18F
:1002D00020020CDA0C3208DD02F1140CC2F10C021F
:1002E00001FA0CF021FA02F10CE002F11402D8BF7D
:1002F000C2F1200C01FA02F120FA0CFCDCBF41EA49
:100300000C019040E41AA2BF01EB0451294330BD17
:100310006FEA04041F3C1CDA0C340EDC04F11404F4
:10032000C4F1200220FA04F001FA02F340EA0300CB
:1003300021FA04F345EA030130BDC4F10C04C4F111
:10034000200220FA02F001FA04F340EA03002946F1
:1003500030BD21FA04F0294630BD94F0000F83F43B
:10036000801306BF81F480110134013D4EE77FEA1E
:10037000645C18BF7FEA655C29D094EA050F08BF6A
:1003800090EA020F05D054EA000C04BF194610464B
:1003900030BD91EA030F1EBF0021002030BD5FEA8F
:1003A000545C05D14000494128BF41F0004130BDB7
:1003B00014F580043CBF01F5801130BD01F000450B
:1003C00045F0FE4141F470014FF0000030BD7FEA7E
:1003D000645C1ABF194610467FEA655C1CBF0B4679
:1003E000024650EA013406BF52EA033591EA030F90
:1003F00041F4002130BD00BF90F0000F04BF002188
:10040000704730B54FF4806404F132044FF00005BA
:100410004FF0000150E700BF90F0000F04BF002133
:10042000704730B54FF4806404F1320410F0004599
:1004300048BF40424FF000013EE700BF42004FEA94
:10044000E2014FEA31014FEA02701FBF12F07F4311
:1004500093F07F4F81F06051704792F0000F14BF0E
:1004600093F07F4F704730B54FF4607401F0004552
:1004700021F0004120E700BF50EA010208BF7047A9
:1004800030B54FF000050AE050EA010208BF70479E
:1004900030B511F0004502D5404261EB41014FF407
:1004A000806404F132045FEA915C3FF4DCAE4FF00B
:1004B00003025FEADC0C18BF03325FEADC0C18BFF2
:1004C000033202EBDC02C2F1200300FA03FC20FA43
:1004D00002F001FA03FE40EA0E0021FA02F1144490
:1004E000C1E600BF70B54FF0FF0C4CF4E06C1CEAA5
:1004F00011541DBF1CEA135594EA0C0F95EA0C0F1A
:1005000000F0DEF82C4481EA030621EA4C5123EA8C
:100510004C5350EA013518BF52EA033541F48011BB
:1005200043F4801338D0A0FB02CE4FF00005E1FB6E
:1005300002E506F00042E0FB03E54FF00006E1FBB8
:1005400003569CF0000F18BF4EF0010EA4F1FF04FB
:10055000B6F5007F64F5407404D25FEA4E0E6D413B
:1005600046EB060642EAC62141EA55514FEAC5204C
:1005700040EA5E504FEACE2EB4F1FD0C88BFBCF5C8
:10058000E06F1ED8BEF1004F08BF5FEA500E50F179
:10059000000041EB045170BD06F0004646EA01013F
:1005A00040EA020081EA0301B4EB5C04C2BFD4EB71
:1005B0000C0541EA045170BD41F480114FF0000E6A
:1005C000013C00F3AB8014F1360FDEBF002001F0D8
:1005D000004170BDC4F10004203C35DA0C341BDC52
:1005E00004F11404C4F1200500FA05F320FA04F024
:1005F00001FA05F240EA020001F0004221F0004158
:1006000010EBD37021FA04F642EB06015EEA430ECA
:1006100008BF20EAD37070BDC4F10C04C4F12005FA
:1006200000FA04F320FA05F001FA04F240EA0200AD
:1006300001F0004110EBD37041F100015EEA430E7E
:1006400008BF20EAD37070BDC4F1200500FA05F29E
:100650004EEA020E20FA04F301FA05F243EA02031D
:1006600021FA04F001F0004121FA04F220EA02002C
:1006700000EBD3705EEA430E08BF20EAD37070BD72
:1006800094F0000F0FD101F00046400041EB010152
:1006900011F4801F08BF013CF7D041EA060195F034
:1006A000000F18BF704703F00046520043EB0303EE
:1006B00013F4801F08BF013DF7D043EA06037047DB
:1006C00094EA0C0F0CEA135518BF95EA0C0F0CD0E6
:1006D00050EA410618BF52EA4306D1D181EA03012C
:1006E00001F000414FF0000070BD50EA410606BF26
:1006F0001046194652EA430619D094EA0C0F02D16B
:1007000050EA013613D195EA0C0F05D152EA0336AF
:100710001CBF104619460AD181EA030101F00041CD
:1007200041F0FE4141F470014FF0000070BD41F016
:10073000FE4141F4780170BD70B54FF0FF0C4CF4F0
:10074000E06C1CEA11541DBF1CEA135594EA0C0F0F
:1007500095EA0C0F00F0A7F8A4EB050481EA030E5C
:1007600052EA03354FEA013100F088804FEA033343
:100770004FF0805545EA131343EA12634FEA022211
:1007800045EA111545EA10654FEA00260EF00041D2
:100790009D4208BF964244F1FD0404F5407402D224
:1007A0005B084FEA3202B61A65EB03055B084FEAB5
:1007B00032024FF480104FF4002CB6EB020E75EBB2
:1007C000030E22BFB61A754640EA0C005B084FEADA
:1007D0003202B6EB020E75EB030E22BFB61A754657
:1007E00040EA5C005B084FEA3202B6EB020E75EBA2
:1007F000030E22BFB61A754640EA9C005B084FEA1A
:100800003202B6EB020E75EB030E22BFB61A754626
:1008100040EADC0055EA060E18D04FEA051545EA15
:1008200016754FEA06164FEAC30343EA52734FEABE
:10083000C2025FEA1C1CC0D111F4801F0BD141EA37
:1008400000014FF000004FF0004CB6E711F4801F9C
:1008500004BF01430020B4F1FD0C88BFBCF5E06F7C
:100860003FF6AFAEB5EB030C04BFB6EB020C5FEA8C
:10087000500C50F1000041EB045170BD0EF0004EE1
:100880004EEA113114EB5C04C2BFD4EB0C0541EA13
:10089000045170BD41F480114FF0000E013C90E610
:1008A00045EA060E8DE60CEA135594EA0C0F08BFD4
:1008B00095EA0C0F3FF43BAF94EA0C0F0AD150EAD3
:1008C00001347FF434AF95EA0C0F7FF425AF104666
:1008D00019462CE795EA0C0F06D152EA03353FF48E
:1008E000FDAE1046194622E750EA410618BF52EA0B
:1008F00043067FF4C5AE50EA41047FF40DAF52EADF
:1009000043057FF4EBAE12E74FF0FF3C06E000BF7B
:100910004FF0010C02E000BF4FF0010C4DF804CD88
:100920004FEA410C7FEA6C5C4FEA430C18BF7FEA48
:100930006C5C1BD001B050EA410C0CBF52EA430C76
:1009400091EA030F02BF90EA020F0020704710F1F6
:10095000000F91EA030F58BF994208BF90422CBF85
:10096000D8176FEAE37040F0010070474FEA410C7E
:100970007FEA6C5C02D150EA013C07D14FEA430C9C
:100980007FEA6C5CD6D152EA033CD3D05DF8040B0D
:10099000704700BF8446104662468C46194663463F
:1009A00000E000BF01B5FFF7B7FF002848BF10F116
:1009B000000F01BD4DF808EDFFF7F4FF0CBF01205B
:1009C00000205DF808FB00BF4DF808EDFFF7EAFFD7
:1009D00034BF012000205DF808FB00BF4DF808ED92
:1009E000FFF7E0FF94BF012000205DF808FB00BF87
:1009F0004DF808EDFFF7CEFF94BF012000205DF811
:100A000008FB00BF4DF808EDFFF7C4FF34BF01201D
:100A100000205DF808FB00BF4FEA410C7FEA6C5CE8
:100A200002D150EA013C0AD14FEA430C7FEA6C5CE8
:100A300002D152EA033C02D14FF0000070474FF060
:100A4000010070474FEA410212F5001215D211D58C
:100A50006FF47873B3EB625212D94FEAC12343F0BB
:100A6000004343EA505311F0004F23FA02F018BF3D
:100A7000404270474FF00000704750EA013005D106
:100A800011F0004008BF6FF0004070474FF00000C9
:100A9000704700BF4A0011D212F5001211D20DD5D5
:100AA0006FF47873B3EB62520ED44FEAC12343F074
:100AB000004343EA505323FA02F070474FF000001E
:100AC000704750EA013002D14FF0FF3070474FF0CD
:100AD000000070474FEA4102B2F1E04324BFB3F592
:100AE000001CDCF1FE5C0DD901F0004C4FEAC002A5
:100AF0004CEA5070B2F1004F40EB830008BF20F089
:100B00000100704711F0804F21D113F13872BCBF42
:100B100001F00040704741F480114FEA5252C2F197
:100B20001802C2F1200C10FA0CF320FA02F018BFE0
:100B300040F001004FEAC1234FEAD32303FA0CFC33
:100B400040EA0C0023FA02F34FEA4303CCE77FEAC2
:100B5000625307D150EA01331EBF4FF0FE4040F40C
:100B60004000704701F0004040F0FE4040F40000BB
:100B7000704700BF80F0004002E000BF81F00041FC
:100B800042001FBF5FEA410392EA030F7FEA226C33
:100B90007FEA236C6AD04FEA1262D2EB1363C1BFC3
:100BA000D218414048404140B8BF5B42192B88BF32
:100BB000704710F0004F40F4000020F07F4018BF55
:100BC000404211F0004F41F4000121F07F4118BF75
:100BD000494292EA030F3FD0A2F1010241FA03FC1D
:100BE00010EB0C00C3F1200301FA03F100F0004305
:100BF00002D5494260EB4000B0F5000F13D3B0F1CD
:100C0000807F06D340084FEA310102F10102FE2A3B
:100C100051D2B1F1004F40EBC25008BF20F00100AB
:100C200040EA03007047490040EB000010F4000F59
:100C3000A2F10102EDD1B0FA80FCACF1080CB2EBEC
:100C40000C0200FA0CF0AABF00EBC250524218434B
:100C5000BCBFD0401843704792F0000F81F40001F0
:100C600006BF80F400000132013BB5E74FEA4103C3
:100C70007FEA226C18BF7FEA236C21D092EA030F2F
:100C800004D092F0000F08BF0846704790EA010FA9
:100C90001CBF0020704712F07F4F04D1400028BFD6
:100CA00040F00040704712F100723CBF00F50000B8
:100CB000704700F0004343F0FE4040F400007047EE
:100CC0007FEA226216BF08467FEA2363014642029A
:100CD00006BF5FEA412390EA010F40F480007047AD
:100CE0004FF0000304E000BF10F0004348BF404253
:100CF0005FEA000C08BF704743F0964301464FF08F
:100D000000001CE050EA010208BF70474FF00003EA
:100D10000AE000BF50EA010208BF704711F000432B
:100D200002D5404261EB41015FEA010C02BF8446FB
:100D30000146002043F0B64308BFA3F18053A3F55A
:100D40000003BCFA8CF2083AA3EBC25310DB01FAA1
:100D500002FC634400FA02FCC2F12002BCF1004F25
:100D600020FA02F243EB020008BF20F001007047B6
:100D700002F1200201FA02FCC2F1200250EA4C000A
:100D800021FA02F243EB020008BF20EADC70704750
:100D90004FF0FF0C1CEAD0521EBF1CEAD15392EA5E
:100DA0000C0F93EA0C0F6FD01A4480EA010C40023A
:100DB00018BF5FEA41211ED04FF0006343EA501094
:100DC00043EA5111A0FB01310CF00040B1F5000FD6
:100DD0003EBF490041EAD3715B0040EA010062F185
:100DE0007F02FD2A1DD8B3F1004F40EBC25008BF6F
:100DF00020F00100704790F0000F0CF0004C08BF8D
:100E000049024CEA502040EA51207F3AC2BFD2F159
:100E1000FF0340EAC250704740F400004FF0000367
:100E2000013A5DDC12F1190FDCBF00F000407047A1
:100E3000C2F10002410021FA02F1C2F1200200FADF
:100E400002FC5FEA310040F1000053EA4C0308BFA6
:100E500020EADC70704792F0000F00F0004C02BFF7
:100E6000400010F4000F013AF9D040EA0C0093F072
:100E7000000F01F0004C02BF490011F4000F013BCC
:100E8000F9D041EA0C018FE70CEAD15392EA0C0F3A
:100E900018BF93EA0C0F0AD030F0004C18BF31F0A5
:100EA000004CD8D180EA010000F00040704790F07B
:100EB000000F17BF90F0004F084691F0000F91F01F
:100EC000004F14D092EA0C0F01D142020FD193EAE5
:100ED0000C0F03D14B0218BF084608D180EA01006D
:100EE00000F0004040F0FE4040F40000704740F049
:100EF000FE4040F4400070474FF0FF0C1CEAD05217
:100F00001EBF1CEAD15392EA0C0F93EA0C0F69D072
:100F1000A2EB030280EA010C49024FEA402037D0DD
:100F20004FF0805343EA111143EA10130CF00040D4
:100F30008B4238BF5B0042F17D024FF4000C8B42C4
:100F400024BF5B1A40EA0C00B3EB510F24BFA3EBA4
:100F5000510340EA5C00B3EB910F24BFA3EB910374
:100F600040EA9C00B3EBD10F24BFA3EBD10340EACE
:100F7000DC001B0118BF5FEA1C1CE0D1FD2A3FF614
:100F800050AF8B4240EBC25008BF20F001007047C9
:100F90000CF0004C4CEA50207F32C2BFD2F1FF036C
:100FA00040EAC250704740F400004FF00003013A9D
:100FB00037E792F0000F00F0004C02BF400010F441
:100FC000000F013AF9D040EA0C0093F0000F01F055
:100FD000004C02BF490011F4000F013BF9D041EA77
:100FE0000C0195E70CEAD15392EA0C0F08D14202AA
:100FF0007FF47DAF93EA0C0F7FF470AF084676E77D
:1010000093EA0C0F04D14B023FF44CAF08466EE755
:1010100030F0004C18BF31F0004CCAD130F0004223
:101020007FF45CAF31F000437FF43CAF5FE700BF7B
:101030004FF0FF3C06E000BF4FF0010C02E000BFA4
:101040004FF0010C4DF804CD4FEA40024FEA410346
:101050007FEA226C18BF7FEA236C11D001B052EAFC
:10106000530C18BF90EA010F58BFB2EB030088BFC2
:10107000C81738BF6FEAE17018BF40F00100704731
:101080007FEA226C02D15FEA402C05D17FEA236C13
:10109000E4D15FEA412CE1D05DF8040B704700BF5A
:1010A000844608466146FFE70FB5FFF7C9FF0028F1
:1010B00048BF10F1000F0FBD4DF808EDFFF7F4FF2A
:1010C0000CBF012000205DF808FB00BF4DF808EDC3
:1010D000FFF7EAFF34BF012000205DF808FB00BFE6
:1010E0004DF808EDFFF7E0FF94BF012000205DF808
:1010F00008FB00BF4DF808EDFFF7D2FF94BF0120B9
:1011000000205DF808FB00BF4DF808EDFFF7C8FFB1
:1011100034BF012000205DF808FB00BF38B50E4B3E
:10112000054618784FF47A73B3FBF0F30B4A106856
:10113000B0FBF3F000F09EF8044658B90F2D09D823
:10114000024629464FF0FF3000F054F8044B204689
:101150001D6038BD012038BD00000020880000203F
:1011600004000020074A08B51368032043F0100369
:10117000136000F02DF80020FFF7D0FF01F058FFBA
:10118000002008BD00200240034A044B11681B7870
:101190000B441360704700BF1403002000000020C0
:1011A000014B1868704700BF1403002038B504468F
:1011B000FFF7F6FF0546631C1EBF044B1B78E418BF
:1011C000FFF7EEFF401B8442FAD838BD0000002034
:1011D000074A0002D36800F4E06023F4E0631B04D4
:1011E0001B0C43F0BF6343F400330343D3607047E9
:1011F00000ED00E0174B30B5DC68C4F30224C4F105
:101200000703251D042B28BF0423062D4FF00105DD
:1012100098BF002405FA03F303F1FF3388BF033CB2
:101220001940A14005FA04F4013C2240002842EA9A
:1012300001024FEA0212AFBF00F16040064B00F01E
:101240000F00D2B2A5BFD2B200F561401A5480F8A7
:10125000002330BD00ED00E014ED00E00123420961
:1012600000F01F0003FA00F0014B43F82200704722
:1012700000E100E00138B0F1807F0AD2F021064B96
:10128000064A586082F823100020072298601A60EE
:1012900070470120704700BF10E000E000ED00E063
:1012A000044B04281A680CBF42F0040222F0040226
:1012B0001A60704710E000E0704708B5FFF7FCFFC8
:1012C00008BD000090F8213010B5022B03D0042394
:1012D0008363012010BD03681A6822F00E021A60B1
:1012E0001A6822F001021A60184A93421FD0143281
:1012F00093421ED0143293421DD0143293421DD01B
:10130000143293421DD0143293420CBF4FF4801319
:101310004FF080730E4A00245360012380F821307F
:10132000436B80F820407BB19847204610BD0123D5
:10133000F0E71023EEE74FF48073EBE74FF48053B0
:10134000E8E74FF48033E5E7184610BD0800024097
:10135000000002402DE9F74F00221646654BDFF8EA
:10136000A4E1DFF8A4C14FF001080C6808FA06F800
:1013700008EA0404A0457FD14D68122D00F0AF802B
:1013800000F28880022D00F0A7807CD8002D00F0AC
:101390008E80012D00F09E804FF00F09FF2C93BF2F
:1013A000824606F18045083DD0F800B092BFB500F6
:1013B000D0F804B0AD0009FA05F82BEA080802FAE3
:1013C00005F588BF00F1040A48EA0505CAF800508F
:1013D000D1F804A01AF0805F4ED0474D464FAD695A
:1013E00026F0030845F00105BD61BD6908F180489C
:1013F00005F00105019508F5803806F0030B019D05
:101400004FEA8B0BD8F8085009FA0BF925EA0909BD
:101410003A4DA84268D005F58065A84266D005F52A
:101420008065A84264D005F58065A8420CBF0325FD
:10143000042505FA0BF545EA0905C8F808501D68AA
:101440001AF4803F14BF2543A5431D605D681AF45C
:10145000003F14BF2543A5435D609D681AF4801FBB
:1014600014BF2543A5439D60DD681AF4001F14BF17
:101470002C4325EA0404DC600136102E7FF473AFA0
:1014800003B0BDE8F08F032D22D0112D84D1CA689E
:10149000043281E71A4FBD4209D012D8DFF86C90B0
:1014A0004D4504D009F580394D457FF475AF8A6804
:1014B000C2B1012A0CBFC0F81080C0F81480082205
:1014C0006AE77545F3D06545F1D0DFF84490EBE766
:1014D000002261E7CA685FE7CA6808325CE7CA6849
:1014E0000C3259E7042257E70025A2E70125A0E7BF
:1014F00002259EE700040140001002400008014060
:101500000000211000003110000032100000111006
:10151000000022100AB1016170470904FBE70000D6
:1015200003682DE9F341DB07054610D42B689F07BC
:101530005ED42B68190700F195802B685A0700F1DB
:10154000BF80EA69002A40F02D81002014E0904C11
:10155000636803F00C03042B07D0636803F00C03EB
:10156000082B0CD16368DE0309D523689C03DDD505
:101570006B68002BDAD1012002B0BDE8F0816B6806
:10158000B3F5803F10D1236843F480332360FFF725
:1015900007FE064623689803C8D4FFF701FE801BA8
:1015A0006428F7D90320E7E79BB9236823F4803345
:1015B0002360236823F480232360FFF7F1FD0646B0
:1015C00023689903B2D5FFF7EBFD801B6428F7D998
:1015D000E8E7B3F5A02F236803D143F48023236009
:1015E000D1E723F480332360236823F48023CDE7FD
:1015F000674C636813F00C0F07D0636803F00C03AB
:10160000082B10D16368DA030DD423689B0702D539
:101610002B69012BAFD123686A6923F0F80343EAF1
:10162000C203236085E72A695A4B6AB101221A6016
:10163000FFF7B6FD064623689F07ECD4FFF7B0FD21
:10164000801B0228F7D9ADE71A60FFF7A9FD06460F
:10165000236898077FF56DAFFFF7A2FD801B022876
:10166000F6D99FE7AA694A4C4B4BDAB101221A60BE
:10167000FFF796FD0646636A9B070DD54FF4FA52B5
:10168000464B1B68B3FBF2F3019300BF019B5A1E4C
:101690000192002BF9D150E7FFF782FD801B022851
:1016A000E9D97FE71A60FFF77BFD0646636A9F076B
:1016B0007FF543AFFFF774FD801B0228F6D971E771
:1016C000334CE369D80024D40127E36943F0805305
:1016D000E361E36903F080530093009B304E33686D
:1016E000D90518D5EB68012B26D1236A43F00103F5
:1016F0002362FFF755FD41F288368046236A9B0737
:101700003FD5002F3FF41DAFE36923F08053E36121
:1017100017E70027E2E7336843F480733360FFF78D
:101720003FFD80463368DA05DCD4FFF739FDA0EBD6
:1017300008006428F6D935E7ABB9236A41F2883846
:1017400023F001032362236A23F004032362FFF7DB
:1017500027FD0646236A9807D3D5FFF721FD801B96
:101760004045F7D91EE7052B236A03D143F0040354
:101770002362BAE723F001032362236A23F0040300
:10178000B6E7FFF70DFDA0EB0800B042B6D909E7B8
:1017900000100240000042428004424288000020C3
:1017A00000700040224C636803F00C03082B3FF4E8
:1017B000E2AE00231F4E022A33602BD1FFF7F0FC6C
:1017C0000746236899011FD42B6AB3F5803F05D1E2
:1017D0006268A96822F400320A436260696A62683A
:1017E0000B4322F474121343636001233360FFF749
:1017F000D7FC054623689A013FF5A7AEFFF7D0FC5A
:10180000401B0228F6D9CDE6FFF7CAFCC01B022810
:10181000D7D9C7E6FFF7C4FC054623689B017FF5CF
:1018200094AEFFF7BDFC401B0228F6D9BAE600BF14
:10183000001002406000424230B5194B87B002AC44
:1018400003F11005224618685968083303C2AB42F9
:101850001446F7D101238DF80430022311498DF885
:1018600005304B6803F00C02082A17D1C3F38342FA
:1018700006A80244DB0312F8102C0CD54B680A486A
:10188000C3F34043504306AA134413F8143CB0FB7F
:10189000F3F007B030BD05485043FAE70248F8E7D7
:1018A000A03F00080010024000127A0000093D002D
:1018B0004D4A2DE9F0411368054603F007038B42BA
:1018C0000E4628D32A68910732D4D20738D4464A24
:1018D000136803F007039E4273D32A68434C12F047
:1018E000040F79D1130706D563682A6923F460537E
:1018F00043EAC2036360FFF79FFF63683C4AC3F398
:101900000313D35CD8403B4B18600020FFF706FC64
:101910000020BDE8F081136823F007030B43136038
:10192000136803F007039942CCD00120BDE8F08191
:101930002E49A8684B6823F0F00303434B60C4E7CB
:101940006A682A4C012A23681CD113F4003FECD0AA
:10195000636841F2883823F0030313436360FFF7A1
:101960001FFC6B680746012B14D1636803F00C035E
:10197000042BACD0FFF714FCC01B4045F5D9032065
:10198000BDE8F081022A02D113F0007FDFE713F0F7
:10199000020FDCE7022B0FD1636803F00C03082B66
:1019A00095D0FFF7FDFBC01B4045F5D9E7E7FFF7F2
:1019B000F7FBC01B4045E2D8636813F00C0FF6D16B
:1019C00085E7136823F0070333431360136803F0BC
:1019D00007039E42A9D180E76368E96823F4E063C6
:1019E0000B4363607EE700BF00200240001002400E
:1019F0001340000888000020014B1868704700BFA2
:101A000088000020044B054A5B68C3F30223D35CC3
:101A1000034A1068D8407047001002402340000875
:101A200088000020044B054A5B68C3F3C223D35CE3
:101A3000034A1068D8407047001002402340000855
:101A4000880000202DE9F0410446884617461D46CF
:101A5000069E2268936838EA03030CBF0123002323
:101A60009F4202D10020BDE8F0816B1CF2D055BB33
:101A700023685A6822F0E0025A606268B2F5827FF9
:101A80000AD1A268B2F5004F02D0B2F5806F03D13F
:101A90001A6822F040021A60A26AB2F5005F09D10A
:101AA0001A6822F400521204120C1A601A6842F4E6
:101AB00000521A60012384F851300023032084F877
:101AC0005030BDE8F081FFF76BFB801B8542C0D82A
:101AD000CEE713B50B460092802100220446FFF7A3
:101AE000B1FF20B10320636D43F02003636502B0B2
:101AF00010BD2DE9FF411E4690F850300446012BE1
:101B00000D46904600F09C80012380F85030FFF78E
:101B100047FB074694F85100C0B2012840F08E8080
:101B2000002D4ED0B8F1000F4BD0032384F8513074
:101B300000236365A363A4F83680A387E387636407
:101B40002364A3682563B3F5004F2368A4F83480A9
:101B500002BF1A6842F480421A601A6852065EBFD9
:101B60001A6842F040021A60E268B2F5006F6268DB
:101B700038D11AB1E28E92B2012A06D135F8022B81
:101B8000DA60E38E013B9BB2E386E38E9BB293B9AE
:101B900000973346012202212046FFF753FF78B910
:101BA0003A4631462046FFF794FF002838D02023DC
:101BB0000120636505E023689A689007DED44EB97A
:101BC0000320012384F85130002384F8503004B0FE
:101BD000BDE8F081711CD8D0FFF7E2FAC01B864245
:101BE000D3D8EDE71AB1E28E92B2012A06D115F8E8
:101BF000012B1A73E38E013B9BB2E386E38E9BB20B
:101C0000002BC5D023689A689207F0D4002ED7D055
:101C1000731CF3D0FFF7C4FAC01B8642EED8CFE79F
:101C2000A36833B903932368DA6803929B6803932C
:101C3000039B606D003018BF0120C2E70220C0E79F
:101C40000220C4E72DE9F043994690F8503085B062
:101C5000012B04460D4616460C9F00F0EE80012332
:101C600080F85030FFF79CFA94F851308046DBB290
:101C7000012B61680AD0B1F5827F40F0DC80A26858
:101C8000002A40F0D880042B40F0D580002D4ED0A3
:101C9000002E4CD0B9F1000F49D094F85130A66312
:101CA000012B04BF052384F85130002363652364AE
:101CB00063642368A4F83E90A4F836901A68A4F8E8
:101CC0003C90500658BF1A68256358BF42F0400246
:101CD000A4F8349058BF1A60E268B2F5006F5DD185
:101CE00019B1E28E92B2012A06D135F8022BDA60E0
:101CF000E38E013B9BB2E3864FF00109E38E9BB27A
:101D0000BBB9E38F9BB2A3B9CDF800803B4601225B
:101D100002212046FFF796FE002835D1424639467B
:101D20002046FFF7D6FE00287AD0202363650120E5
:101D30002BE0B9F1000F0FD0E38E9BB263B12368A3
:101D40009A68910708D54FF0000935F8022BDA6040
:101D5000E38E013B9BB2E386E38F9BB263B12368C2
:101D60009A68D20708D54FF00109DB6826F8023BD4
:101D7000E38F013B9BB2E387781CBFD0FFF710FADB
:101D8000A0EB08008742B9D80320012384F8513022
:101D9000002384F8503005B0BDE8F08319B1E28E1D
:101DA00092B2012A06D115F8012B1A73E38E013B7A
:101DB0009BB2E3864FF00109E38E9BB21BB9E38F20
:101DC0009BB2002BA0D0B9F1000F0FD0E38E9BB2D5
:101DD00063B123689A68910708D54FF000092A7803
:101DE00001351A73E38E013B9BB2E386E38F9BB20E
:101DF0006BB123689A68D20709D54FF00109DB68F7
:101E0000013606F8013CE38F013B9BB2E3877B1C64
:101E1000D2D0FFF7C5F9A0EB08008742CCD8B3E7D2
:101E2000A368002BB1D123680390DA6803929B6802
:101E30000393039BA9E70220A7E70220ABE72DE964
:101E4000F3411E4643680446B3F5827F0D46904633
:101E50000CD1836853B9042380F85130134600969F
:101E60000A46FFF7EFFE02B0BDE8F08194F850306B
:101E7000012B00F08180012384F85030FFF790F9A6
:101E8000074694F85100C0B2012873D1002D58D0F4
:101E9000B8F1000F55D0042384F851300023636556
:101EA0002363A4F83E80A386E38623646364A36867
:101EB000A563B3F5004F2368A4F83C8002BF1A68FD
:101EC00022F480421A601A6852065EBF1A6842F015
:101ED00040021A60E368CBB1E38F9BB2D3B12368B1
:101EE0009A68D2073CD5DB6825F8023BE38F013BBB
:101EF0009BB2E387F0E723689A68D0071FD51B7B66
:101F000005F8013BE38F013B9BB2E387E38F9BB274
:101F1000002BF0D16368B3F5827F0BD1A368B3F5D2
:101F2000004F02D0B3F5806F04D12268136823F00C
:101F300040031360606D003018BF012001E03EB91E
:101F40000320012384F85130002384F850308AE7BD
:101F5000711CDBD0FFF724F9C01B8642D6D8EFE70F
:101F6000002EEDD0731CB7D0FFF71AF9C01B8642C4
:101F7000B2D8E5E70220E4E7022074E790F85100C8
:101F8000704710B50446002834D00023836290F8CF
:101F900051300BB901F092F80223216884F85130D6
:101FA0000B68A06823F040030B606368A2690343D9
:101FB000E06803432069034360690343E069034326
:101FC000206A0343A06A034302F4007003430B60DA
:101FD000120C636A02F004021A43E36A4A600B615E
:101FE000CB69002023F40063CB610123606584F892
:101FF000513010BD012010BD0368DA6822F49072E0
:10200000DA605A6922F001025A61202380F83A30DE
:10201000704700002DE9F0470568C2682B69016927
:1020200023F4405313432B618368EA680B434169EF
:1020300022F4B05222F00C020B431343EB606B69A5
:10204000826923F4407313436B61404B81469D4288
:102050004FF0190446D1FFF7E5FC04FB00F3D9F873
:1020600004604FF06408B600B3FBF6F3B3FBF8F37B
:102070001E01FFF7D7FC6043D9F804309B00B0FB8A
:10208000F3F7FFF7CFFC6043D9F804309B00B0FBB7
:10209000F3F3B3FBF8F308FB13731B013233B3FB09
:1020A000F8F303F0F007FFF7BDFC6043D9F8042014
:1020B0009200B0FBF2FAFFF7B5FC6043D9F80430A8
:1020C0009B00B0FBF3F3B3FBF8F308FB13A31B0176
:1020D0003233B3FBF8F303F00F033B433344AB60FD
:1020E000BDE8F087FFF78EFC04FB00F3D9F804602D
:1020F0004FF06408B600B3FBF6F3B3FBF8F31E0130
:10210000FFF780FC6043D9F804309B00B0FBF3F785
:10211000FFF778FC6043D9F804309B00B0FBF3F381
:10212000B3FBF8F308FB13731B013233B3FBF8F373
:1021300003F0F007FFF766FC6043D9F80420920033
:10214000B0FBF2FAFFF75EFCB7E700BF00380140D2
:10215000F8B504460E4617461D4621680B6836EA58
:10216000030301D10020F8BD6B1CF7D095B923689B
:102170000320DA6822F4D072DA605A6922F0010290
:102180005A61202384F8393084F83A30002384F8E7
:102190003830F8BDFFF704F8C01B8542DDD2E6E712
:1021A00010B5044640B390F8393003F0FF021BB974
:1021B00080F8382000F0B6FF2423226884F83930F4
:1021C000D368204623F40053D360FFF723FF23682E
:1021D00000201A6922F490421A615A6922F02A02F8
:1021E0005A61DA6842F40052DA602023E06384F82E
:1021F000393084F83A3010BD012010BD2DE9F0418E
:102200001F4690F839300446202B0D4690464ED19B
:10221000002949D0002A47D090F83830012B46D009
:10222000012380F838300023C363212380F839303C
:10223000FEF7B6FF0646A4F82480A4F82680E38CB7
:102240009BB26BB93B46324640212046FFF780FFE8
:10225000A8B9202384F8380084F83930BDE8F0812B
:10226000E38C3246013B9BB2E384A3688021B3F543
:10227000805F20463B460ED1FFF76AFF10B1032076
:10228000BDE8F0812B882268C3F3080353602369FB
:1022900043B90235D3E7FFF75BFF0028EFD123688E
:1022A0002A785A600135CAE70120BDE8F081022092
:1022B000BDE8F08190F83A30202B20D1E9B1E2B1AD
:1022C00090F83830012B1AD0C28582850023222253
:1022D000C36380F83A2002688162D16880F83830A0
:1022E00041F48071D1605169184641F0010151619A
:1022F000D16841F02001D160704701207047022071
:102300007047704790F83A3010B5222B36D1836869
:102310000169B3F5805F0268836A23D15268E9B925
:10232000C2F3080223F8022B8362C48D013CA4B2DD
:10233000C4858CB90368DA6822F02002DA60DA68B2
:1023400022F48072DA605A6922F001025A61202375
:1023500080F83A3000F080FC002010BDD2B223F8A3
:10236000012BE1E721B9591C526881621A70DCE740
:102370005268591C816202F07F02F7E7022010BD0B
:1023800070470000036870B51A6804461607D968DC
:102390005D6907D196065AD58D0658D5BDE87040BF
:1023A000FFF7B0BF15F0010502D111F4907F4ED0B8
:1023B000D30705D5CE0542BFE36B43F00103E363CA
:1023C000500704D51DB1E36B43F00203E3639307A9
:1023D00004D51DB1E36B43F00403E363160704D592
:1023E0001DB1E36B43F00803E363E36B002B66D09E
:1023F000950604D5880602D52046FFF783FF23689B
:1024000020465D69E26B110702D415F040051AD031
:10241000FFF7F2FD23685A69520610D55A69606BBE
:1024200022F040025A6150B1254B4363FEF74AFF48
:10243000002844D0606BBDE87040436B18472046CD
:10244000FFF79EFF70BDFFF79BFFE56370BD1606AB
:1024500027D50D0625D594F83920212A2FD1A26839
:10246000B2F5805F226A17D11188C1F30801596063
:10247000216979B902322262E28C013A92B2E28495
:10248000EAB9DA6822F08002DA60DA6842F04002E3
:10249000DA6070BD0132EEE7511C216212785A6099
:1024A000EAE750060BD54A0609D5DA68204622F03D
:1024B0004002DA60202384F83930FFF722FF70BD34
:1024C000C524000808B50023406AC385C384FFF70C
:1024D00057FF08BD2DE9F04180460C461746FDF731
:1024E00041FE0023834214D1721B691C013A41440E
:1024F000204600F013FF2046FDF734FE214600225F
:102500002044814210D13846BDE8F041084900F02E
:102510004DBF18F80320242A03D02A2A02D11E46D0
:10252000E2E71D460133DDE711F8013B5A40E8E7D9
:10253000B03F0008F7B5184F064680220021384604
:1025400000F0F7FE00243A46394622F8804F304624
:10255000ADF804408DF80640FFF7BCFF3046FDF7AC
:1025600001FE224690420BD0B35C2A2B11D00D2BDA
:1025700010D1521B691C013A314401A800F0CEFE73
:10258000064901A8FDF7E4FDB0FA80F0400903B068
:10259000F0BD15460132E5E718030020980300203E
:1025A000024B1A680AB11B68184770477C0200206A
:1025B00000231A46F0B585B001AD5A5501330B2BF7
:1025C000FBD100230A26B0FBF6F706FB17005A1CC6
:1025D0003030E854D4B238461FB10B2A1346F2D13A
:1025E00014468C4206D200260C1BF3B2A34206F11D
:1025F00001060BDB00242B19987A08B1FFF7D0FFF6
:10260000013C14F10B0FF6D105B0F0BD3020FFF7FF
:10261000C7FFEAE7F0B5054685B0084629B9114677
:1026200005B0BDE8F040FFF7C3BF00239D4214BFD3
:102630003725572501AC01936360237200F00F0129
:10264000092994BF30314919E154072B03F10101E5
:102650004FEA1010CEB201D1082602E00B46002846
:10266000ECD1B24206D90027951BFBB2AB4207F171
:1026700001070BDB34440DF1030514F8010908B11F
:10268000FFF78EFFAC42F8D105B0F0BD3020FFF768
:1026900087FFEAE7F8B5074616460D4679B10C46BE
:1026A000022214F8011B3846FFF7B4FF66B92378FD
:1026B00073B1631B9BB2B3F5805FF1D3F8BD3F20CC
:1026C000BDE8F840FFF76CBF631B9BB29E42E7D8A2
:1026D000F8BD0000054B1A7802F0FF01002AFAD17C
:1026E00001221A70024A106019707047800200209F
:1026F0007C0200200FB49C4A2DE9F04F90468BB02D
:10270000149C9A4B117809B1013BFBD101234FF086
:10271000000A4FF0000B88F8003015AB01932378C6
:1027200033B988F800300BB0BDE8F04F04B0704703
:10273000252B1DD16578303DEBB2092B9DBFA378C9
:1027400005EB8505303B01349CBF033403EB4505A5
:1027500023788CBF002505F0FF05642B5AD015D8CF
:10276000582B00F0A68008D8482B00F0F680013CDA
:1027700014F8010BFFF714FFD1E7622B5FD0632B36
:10278000F5D1019B1A1D0192187833E0732B1BD0F1
:102790000DD8662B00F09480682BE8D1019B0020B7
:1027A0001A1D01922A461968FFF774FF2CE0752B59
:1027B0003FD0782BDBD1019B00201A1D01922A46C5
:1027C0001968FFF727FF1FE0019BAEB21A1D1B68B7
:1027D000019273B1002703F1FF3919F8010F60B9B5
:1027E00095B1BE4210D920200137FFF7D9FEBFB204
:1027F000F7E73F20FFF7D4FE06E00137FFF7D0FEF2
:10280000BFB21DB1BE42E8D8013488E7B7F5805F9A
:10281000E3D1F9E7019B1E681A1D002E019203DA2D
:102820002D20FFF7BDFE764229463046FFF7C0FE59
:10283000EAE7019B29461A1D01921868F6E7019BF9
:102840001F681A1D019217B929463846EEE702AEF5
:1028500020220021304600F06CFD002307F0010229
:102860003032F2541F2B03F101024FEA57075FFA8F
:1028700082F902D14FF0200902E01346002FEDD17A
:102880004D4507D90027A5EB0905FBB2AB4207F17F
:1028900001070ADB4E440DF1070516F8010908B1DE
:1028A000FFF77EFEAE42F8D1AEE73020FFF778FEAC
:1028B000EBE7019B01201A1D019219682A4680E767
:1028C000019B073323F00703D3E9006703F10802F4
:1028D000394630460192FEF7B5F80546FDF79CFDF6
:1028E00002460B4630463946FDF748FC002D0646A9
:1028F0000F4630DA2D20FFF753FE68420021FFF724
:1029000057FE2E20FFF74CFE00250022184B3046C4
:102910003946FDF7E7FD0F460646FEF793F8814678
:10292000FDF77AFD02460B4630463946FDF726FC98
:1029300052465B4606460F46FEF73CF810B1002DA6
:102940007FF462AF013500214846EDB2FFF730FE5B
:10295000062DDAD158E72846D0E7019B01201A1D41
:10296000019219682A461FE78002002041420F00A9
:102970000000244007B502A901F8010D4FF47A7355
:1029800001220348FFF73AFC03B05DF804FB00BFE7
:10299000AC0400200A464FF0FF3301460148FFF720
:1029A000A8B800BF540400200A464FF0FF33014688
:1029B0000148FFF744BA00BF54040020F7B502AC49
:1029C00004F8010D0D460F484FF4805116460022C1
:1029D000FEF7A0FD01212046FFF7DCFF0A4F384635
:1029E000FFF7CCFA01280446F9D131462846FFF713
:1029F000DBFF22464FF480510248FEF78BFD03B007
:102A0000F0BD00BF000801405404002037B50F4D51
:102A100002AC60F07F0004F8010D00228DF8061072
:102A200028464FF48051FEF775FD20460121FFF73F
:102A3000B1FF0DF106000121FFF7ACFF01224FF4B9
:102A400080512846FEF766FD03B030BD0008014006
:102A5000F8B50C4606464FF060511046FEF798F95F
:102A60002146FEF795F905463046FDF7E7FC02469C
:102A70000B4655A1D1E90001FDF75EFEFEF72AF8ED
:102A80002946FEF785F96249FEF77AF8FDF7D6FC8C
:102A900001F064F94EA3D3E90023FDF76FFB4EA3C9
:102AA000D3E90023FDF748FEFEF714F800210446A1
:102AB000FEF720FB002840F0858031462846FEF7CF
:102AC0001BFA5449FEF764F901460446FEF760F923
:102AD00005462046FDF7B2FC41A3D3E90023FDF7EC
:102AE00001FD41A3D3E90023FDF748FBFDF7F2FF09
:102AF000FDF7A4FC064628460F46FDF79FFC3CA3C5
:102B0000D3E90023FDF7EEFC02460B46304639467A
:102B1000FDF736FB06460F4620462946FEF738F9F4
:102B2000394605463046FDF7D5FFFDF787FC0646DA
:102B300028460F46FDF782FC2FA3D3E90023FDF7BB
:102B4000D1FC02460B4630463946FDF717FB0646D8
:102B50000F4620462946FEF71BF939460546304602
:102B6000FDF7B8FFFDF76AFC064628460F46FDF75D
:102B700065FC23A3D3E90023FDF7B4FC02460B4612
:102B800030463946FDF7FAFA06460F4620462946F2
:102B9000FEF7FEF8FDF752FC1BA3D3E90023FDF777
:102BA000A1FC04460D4630463946FDF793FFFDF77C
:102BB00045FC02460B4620462946FDF7E1FAFDF7A3
:102BC00089FF04462046F8BD88CE19EEAF60C3BE2B
:102BD000000000402602703F000000E0AF60B3BE7E
:102BE000F163CC5D4BC80140000000E0A3406E40A3
:102BF000BB82C87D062F653F93C266C7E03DD43EC9
:102C0000CE563151E2425E3E3EFAE46127F3E43DA6
:102C1000178393370000C84207B5B2210020FFF7A1
:102C2000F5FE6420FEF7C2FA01A902220120FFF797
:102C3000C5FEBDF8040040BAC0F34E00FEF750F8E0
:102C4000034902460348FFF703FF03B05DF804FBA6
:102C50000000D7430000C84202680C4B9A4210D1D2
:102C60000B490C4A0B7813F0800F04D1581C0870E4
:102C700010780949C85413780D2B02BF0122074B65
:102C80001A70012203490648FFF714BB00440040B4
:102C9000050300205004002085020020830200204C
:102CA000AC0400204FF4803310B590B0079301249A
:102CB000002306A806940D93FEF732FC014600B1EE
:102CC000FEE70F2303900490059001A8029401935E
:102CD000FEF7EEFD044600B1FEE7FEF78DFE4FF471
:102CE0007A73B0FBF3F0FEF7C5FA0420FEF7D8FACA
:102CF000224621464FF0FF30FEF77CFA10B010BD9F
:102D00002DE9F04F95B0FEF72DFAFFF7CBFFAB4B57
:102D10004FF480519A69AA4842F020029A619A6958
:102D2000012502F020020492049A9A694FF48276F7
:102D300042F004029A619A6902F004020592059A2F
:102D40009A6942F008029A619B69012203F0080324
:102D50000693069BFEF7DEFB00224FF44071994874
:102D6000FEF7D8FB4FF480530793032307A9944839
:102D70000A930895FEF7EEFA4FF440730793022387
:102D8000904807A90A930895FEF7E4FA8E488F4BFE
:102D90004FF4007280E84800002382618360C360C2
:102DA000036138220362436283620A234561C26180
:102DB000C362FFF7E6F800B1FEE74FF41653844C08
:102DC000844AA06084E80C000C23E0602061A061CC
:102DD000E06120466361FFF7E3F900B1FEE77E485A
:102DE000FFF778FC2A467D492046FFF763FA4FF447
:102DF0007A754FF0000B7A4EDFF82C92794F3046FF
:102E0000FFF778FC3B78784C8BB13046FFF792FBAC
:102E100010F0FF0F7549764800F09C80FFF76AFCC0
:102E20007448FFF767FC0123237000233B7023786D
:102E30005BB30021322207A800F07BFA3046FDF791
:102E400091F900231946DAB290420ED9B55C2C2DC7
:102E500000F089802A2D40F08780521AD2B20131C9
:102E6000013A314407A800F059FA07A96248FFF770
:102E700041FC07A800F029FA0546002876D14FF456
:102E80007A7589F800000023237099F80030002B30
:102E900055D0FFF7C1FE59468046FEF735F9574F2A
:102EA00000286BD056494046FEF710F9002865D03F
:102EB00001224FF480714348FEF72CFB00224FF4AF
:102EC00000714048FEF726FB01233B703B78012B45
:102ED00033D1802200214B4800F02BFA322200210E
:102EE000494800F026FA0023484C40462380FDF76D
:102EF000A5FAA31C3222CDE9020100F05DF9A01C65
:102F0000FDF730F9DFF824A15FFA80F84246A11CF2
:102F10000AF1060000F002FA2A232246504608F180
:102F20000608A4F180010AF80830FFF7D3FADDE9BA
:102F3000022300943648FFF7DDFB00233B7000219D
:102F4000344B80223046197000F0F3F92846FEF722
:102F50002DF953E7FFF7CEFB2F48FFF7CBFB2F48A8
:102F6000FFF7C8FB61E7114601336CE70123014617
:102F70002B4889F80030FFF7BDFB84E7294940461C
:102F8000FEF7C2F860B159464046FEF79FF838B1E7
:102F900000224FF480710B48FEF7BCFA01228EE745
:102FA00000224FF480710748FEF7B4FA00224FF474
:102FB00000710448FEF7AEFA002386E700100240D5
:102FC00000080140000C0140540400200030014082
:102FD000AC04002000440040752900085004002083
:102FE00085020020830200208102002018030020B7
:102FF000B53F0008C13F0008DE3F00088202002004
:10300000008054449C0300201E0400201C04002067
:10301000FC3F00080503002098030020CF3F000874
:10302000F03F0008000048C3840200200800002090
:10303000204B07B59A69032042F001029A619B690F
:1030400003F001030193019BFEF7C2F800226FF029
:103050000B001146FEF7CEF800226FF00A00114671
:10306000FEF7C8F800226FF009001146FEF7C2F81B
:1030700000226FF004001146FEF7BCF800226FF04A
:1030800003001146FEF7B6F800226FF0010011466A
:10309000FEF7B0F800224FF0FF301146FEF7AAF815
:1030A000054A536823F0E06343F00073536003B0B4
:1030B0005DF804FB00100240000001407FB502688B
:1030C000154B9A4224D103F560439A6902A942F450
:1030D00080529A619B69114803F480530193019BCC
:1030E000282302930223039303230593FEF732F967
:1030F00010230293002302A9084803930493FEF7C8
:1031000029F9074A536843F0E06343F00103536031
:1031100007B05DF804FB00BF00300140000C014027
:103120000000014010B50268164B86B09A4226D1C5
:1031300003F5E633DA6902A942F40032DA61DB69A9
:10314000114803F400330193019B042302930223EB
:10315000039303230593FEF7FDF8082300240DEBEA
:1031600003010948029303940494FEF7F3F8262020
:1031700022462146FEF73EF82620FEF76FF806B0FD
:1031800010BD00BF00440040000801407047FEE74A
:10319000FEE7FEE7FEE770477047704708B5FDF7AA
:1031A000F3FFBDE80840FEF788B800000148FFF7CC
:1031B000E9B800BFAC0400202DE9734315461C4656
:1031C00089468046FDF73EFC0646FDF725F9024696
:1031D0000B4640464946FCF7D1FF13A3D3E9002331
:1031E000FDF780F9FDF756FC334600902946104A5A
:1031F000204600F0A7F863190025204603F8015C7B
:10320000FCF7B0FF013880B218B9204602B0BDE823
:103210007083231813F8012C2E2AF6D0225C302A52
:10322000F3D11D70EEE700BF0000000080842E4146
:103230000A4000080F4B1A6842F001021A605968F0
:103240000D4A0A405A601A6822F0847222F48032D1
:103250001A601A6822F480221A605A6822F4FE0268
:103260005A604FF41F029A604FF00062034B9A605D
:10327000704700BF001002400000FFF800ED00E0C2
:10328000002103E00B4B5B58435004310A480B4BC1
:1032900042189A42F6D30A4A02E0002342F8043B5D
:1032A000084B9A42F9D3FFF7C5FF00F013F8FFF778
:1032B00027FD7047784100080000002060020020D0
:1032C00060020020F0040020FEE70A22002100F046
:1032D00011B9000070B500250C4E0D4CA41BA410B4
:1032E000A54209D100F050FE00250A4E0A4CA41B4D
:1032F000A410A54205D170BD56F825309847013578
:10330000EEE756F8253098470135F2E7704100089E
:1033100070410008704100087441000810B5431E58
:103320000A44914200D110BD11F8014B03F8014F3E
:10333000F7E703460244934200D1704703F8011BAC
:10334000F9E700000CB430B5174B0C1E9DB01D689A
:1033500008DA8B234FF0FF302B601DB0BDE8304002
:1033600002B070474FF40273ADF814300CBF23461F
:1033700004F1FF33049307934FF6FF730290069016
:10338000ADF81630209A21AB02A92846019300F02F
:1033900037F9431CBCBF8B232B60002CDDD00022EF
:1033A000029B1A70D9E700BF8C0000200EB44FF4C6
:1033B000027100B59CB0ADF814106FF0004104919B
:1033C00007914FF6FF711DAB02900690084853F825
:1033D000042BADF81610006802A9019300F010F953
:1033E0000022029B1A701CB05DF804EB03B070471A
:1033F0008C0000202DE9F84F8046894692461F46F2
:103400008B465D460A9815F8014B00F089F8204478
:10341000467816F008060BD12D2C0BD101262C78FE
:103420000BF1020567B1102F14D1302C0AD011E036
:10343000AB46E6E72B2C04BF2C780BF10205F1E735
:10344000302C27D12B7803F0DF03582B4BD11027DA
:103450006C780235002E0CBF6FF000414FF0004138
:103460000022B1FBF7FE104607FB1E1CA4F130033F
:10347000092B11D81C46A7421DDD531C07D08645D9
:1034800016D301D1A44513DB012200FB074015F838
:10349000014BEBE70A27DDE7A4F14103192B01D823
:1034A000373CE8E7A4F16103192B04D8573CE2E765
:1034B0004FF0FF32EBE7531C08D122230846C8F82F
:1034C0000030BAF1000F07D1BDE8F88F06B14042D5
:1034D000BAF1000F0CD022B1013DCAF80050BDE88E
:1034E000F88F4D46F9E73024002FB3D10827B1E714
:1034F000BDE8F88F084B37B51C68084D236A002BD0
:1035000008BF2B46009313460A4601462046FFF7A4
:1035100071FF03B030BD00BF8C000020F000002020
:10352000D0F8EC00704782B001B901A942B14BB1AB
:1035300013780B601278101C18BF012002B070477E
:103540001046FBE76FF00100F8E72DE9F0478E68C1
:1035500082469E420C469146984635D88A8912F496
:10356000906F31D00223256809696F1A656905EBF0
:10357000450595FBF3F508F101033B449D4238BF37
:103580001D46530531D5294600F048FB064650B983
:103590000C23CAF80030A3894FF0FF3043F04003FA
:1035A000A381BDE8F0873A462169FFF7B7FEA389FA
:1035B00023F4906343F08003A38126613E44266098
:1035C00046466561ED1BA560464528BF464649460F
:1035D0003246206800F0BBFAA36800209B1BA36062
:1035E00023681E442660BDE8F0872A4600F074FB7D
:1035F00006460028E1D12169504600F0C3FAC7E72A
:103600002DE9F04F9DB003938B8980461C060D4633
:1036100016460FD50B696BB9402100F0FFFA286000
:10362000286128B90C23C8F800304FF0FF30C4E0FF
:1036300040236B610023099320238DF82930302328
:103640004FF0010B8DF82A3037463C4614F8013B09
:10365000002B3CD1B7EB060A0BD053463246294625
:103660004046FFF772FF013000F0A280099B5344EF
:1036700009933B78002B00F09B8000234FF0FF3232
:1036800004930793059206938DF853301A930522FD
:103690002178504800F04DFA671C049BD8B9D90630
:1036A00044BF20228DF853201A0744BF2B228DF8E7
:1036B000532022782A2A16D000210A20079A27466A
:1036C0003B780134303B092B50D9C9B111E0252B8F
:1036D000C0D02746B9E73F4A3C46801A0BFA00F0B3
:1036E00018430490D3E7039A111D12680391002A2E
:1036F00001DB079204E0524243F002030792049375
:103700003B782E2B0DD17B78791C2A2B32D1039B51
:1037100002371A1D1B680392002BB8BF4FF0FF330E
:1037200005932D4C03223978204600F002FA38B177
:103730004023001B03FA00F0049B0137034304936A
:103740003978062225487E1C8DF8281000F0F1F902
:10375000002835D0224BFBB9039B073323F0070326
:1037600008330393099B4B4409936DE700FB023236
:103770000121A4E700230A24184605930F463A784E
:103780000131303A092A03D9002BCAD00590C8E785
:1037900004FB00200123F1E703AB00932A46114B01
:1037A00004A94046AFF30080B0F1FF3F8146D9D174
:1037B000AB895B063FF539AF09981DB0BDE8F08FC6
:1037C00003AB00932A46074B04A9404600F084F857
:1037D000EAE700BF354000083B4000083F400008D2
:1037E000000000004B3500082DE9F04791461F46C8
:1037F0008A680B6906469342B8BF1346C9F8003081
:1038000091F843200C46DDF8208012B10133C9F84D
:1038100000302368990642BFD9F800300233C9F856
:103820000030256815F0060507D104F1190AE36890
:10383000D9F800209B1A9D422ADB94F84330226875
:10384000003318BF012392062FD404F143023946F6
:103850003046C047013022D02368E56803F00603F4
:10386000042B18BF0025D9F800204FF0000908BF2D
:10387000AD1AA368226908BF25EAE5759342C4BF63
:103880009B1AED181A344D451BD10020BDE8F08776
:103890000123524639463046C047013003D14FF02C
:1038A000FF30BDE8F0870135C1E73020E11881F82D
:1038B00043005A1C94F845102244023382F8431006
:1038C000C3E70123224639463046C0470130E6D0DF
:1038D00009F10109D7E700002DE9F04317460A7EF8
:1038E00085B06E2A984606460C460C9B01F1430EA5
:1038F00000F0BC801AD8632A2ED00AD8002A00F023
:10390000C880582A00F08A8004F1420584F84220D9
:103910002AE0642A01D0692AF6D121681A6811F0D8
:10392000800F23D0111D1960136827E0732A00F05F
:10393000B48008D86F2A2AD0702AE5D10A6842F0EC
:1039400020020A6003E0752A21D0782ADCD178228F
:103950006F4984F8452064E01A6801F14205111DA1
:103960001960136884F842300123A3E011F0400F7E
:1039700002F104011960D7D0B2F90030002B03DA4C
:103980002D225B4284F8432062490A2217E0206816
:10399000196810F0800F03D0081D18600B6806E04E
:1039A00010F0400F01F104001860F7D00B886F2A67
:1039B00014BF0A2208225749002084F84300656892
:1039C000002DA560C0F29C80206820F004002060DB
:1039D000002B3FD1002D40F095807546082A0BD171
:1039E0002368DA0708D5236962689A42DEBF30236C
:1039F00005F8013C05F1FF35AEEB05032361CDF879
:103A000000803B4603AA21463046FFF7EDFE013019
:103A100055D14FF0FF3005B0BDE8F08381F8452067
:103A20003C492268186812F0800F00F104051D60FF
:103A300001D0036802E05506FBD50388D00744BFD8
:103A400042F0200222601BB9226822F0200222608C
:103A50001022B1E77546B3FBF2F002FB1033CB5CEA
:103A600005F8013D03460028F5D1B7E708681A6854
:103A700010F0800F496904D0101D18601368196098
:103A800007E010F0400F02F1040018601368F6D050
:103A90001980002375462361B1E71A68111D19606A
:103AA000156800216268284600F043F808B1401B01
:103AB000606063682361002384F843309FE72369D3
:103AC0002A4639463046C0470130A2D023689B07BA
:103AD00007D5002504F11909E368039A9B1A9D4252
:103AE00005DBE068039B9842B8BF184693E70123C3
:103AF0004A4639463046C04701308AD00135EBE7A7
:103B0000002BA7D10B7804F1420584F8423065E719
:103B1000574000084640000849B1FF2A8BBF8A235E
:103B20000A700360012088BF4FF0FF3070470846DD
:103B3000704710B5C9B202449042034601D100203B
:103B400010BD1C7801308C42F6D1184610BD884259
:103B500010B501EB020303D8421E99420CD110BDEF
:103B60009842F9D28118D21AD34200D110BD13F86D
:103B7000014D01F8014DF7E711F8014B02F8014F33
:103B8000EBE7000038B50546002943D051F8043C66
:103B90000C1F002BB8BFE41800F0D4F81E4A1368BD
:103BA000104633B9636014602846BDE8384000F021
:103BB000CAB8A3420BD921686218934201BF1A68A0
:103BC0005B685218226063600460EDE713465A6830
:103BD0000AB1A242FAD919685818A0420BD120683C
:103BE0000144581882421960DED1106852680144BD
:103BF00019605A60D8E702D90C232B60D4E72068FB
:103C000021188A4201BF1168526809182160626058
:103C10005C60C9E738BD00BF0803002070B5CD1C4B
:103C200025F0030508350C2D38BF0C25002D064660
:103C300001DBA94203D90C233360002070BD00F0E2
:103C400081F8234A1468214691B9224C23681BB994
:103C5000304600F067F820602946304600F062F8F0
:103C6000431C26D10C233046336000F06CF8E4E7A7
:103C70000B685B1B1AD40B2B0FD90B60CC18CD50E3
:103C8000304600F060F804F10B00231D20F007001F
:103C9000C31A1BD05A42E25070BD8C420BBF6368FE
:103CA0004B681360636018BF0C46E9E70C4649682F
:103CB000CAE7C41C24F00304A04205D0211A3046F0
:103CC00000F030F80130CDD02560D9E770BD00BFDD
:103CD000080300200C030020F8B5074614460E46E2
:103CE00021B91146BDE8F840FFF798BF22B9FFF7A8
:103CF00049FF25462846F8BD00F026F884420FD932
:103D000021463846FFF78AFF05460028F2D03146A3
:103D10002246FFF703FB31463846FFF733FFE9E75A
:103D20003546E7E738B50023054C054608462360CD
:103D300000F01CF9431C02D1236803B12B6038BD8D
:103D4000EC0400207047704751F8040C0028A0F1E3
:103D50000400BCBF0B58C018704700002DE9F04F9D
:103D60008BB004460D4600F04DF8244B804693F985
:103D700000A08946BAF1FF3F2BD022462B462046B1
:103D80002946FCF749FE834618BB00260027324629
:103D90003B4620462946FCF717FED0B1012300938D
:103DA000174BCDF820B00193CDE90445CDE902458C
:103DB000BAF1000F12D1CDE90667684600F0CEF8DF
:103DC000B8B1089B1BB100F0CBF8089B0360DDE99C
:103DD0000689404649460BB0BDE8F08F32463B4667
:103DE00030463946FCF7A8FCBAF1020FCDE90601CE
:103DF000E3D100F0B5F821230360E2E75C02002084
:103E0000694100082DE9F041DFF84CE106463EEA41
:103E1000010E0D4607460A460C4603460FD10246E0
:103E20000B46FCF75FFB02460B4630462946FCF783
:103E3000A7F906460D4630462946BDE8F08100291F
:103E40000EDC21F0004E5EEA0707F4D041B10246D5
:103E50000B46FCF793F902460B46FCF76DFCE8E7CE
:103E600012150CD1002C6ED00021E6026FD5481E31
:103E7000121AC1F1200023FA00F004438B40A2F291
:103E8000FF32D5074FF00005C4F3130444F4801447
:103E900042BF640004EBD3745B0004EBD371501099
:103EA000214416222C464FF400165B00A7198F42BE
:103EB000DEBFC91BBC19AD194900013A01EBD37132
:103EC0004FEA56064FEA4303F0D14FF0200E9446D6
:103ED0004FF00046A14206EB0C0702DC12D19F42D4
:103EE00010D8002F07EB060C34DABCF1000F31DBE1
:103EF00004F10108091B44469F4288BF01F1FF31CC
:103F0000DB1B324401EBD377BEF1010E39444FEA9B
:103F100043034FEA5606DDD10B4306D0541C0BBFBA
:103F200072460132013522F001026B105208E90796
:103F300003F17F5303F5001348BF42F0004203EB47
:103F40000055164677E7DC0A153A5B058AE76400F8
:103F500001318AE7A046CDE70000F07F00207047DE
:103F6000014B1868704700BF8C000020044B0246CC
:103F7000196809B903491960186802441A60704742
:103F800010030020F0040020F8B500BFF8BC08BC06
:103F90009E467047F8B500BFF8BC08BC9E46704707
:103FA00002030405060708090A0B0C0D0E0F10107A
:103FB0002530327800446174613A202573200D0A5F
:103FC0000020547275652044617461200D0A002040
:103FD00046616C73652044617461200D0A00636F53
:103FE0006E66696754696D653A202573200D0A0075
:103FF00044656C61793D2564200D0A002454454DCB
:10400000502C25662A25730D0A0025642E2530368E
:104010006C750000000000000000000102030406AF
:1040200007080900000000010203044300504F5339
:104030004958002E00232D302B2000686C4C006561
:1040400066674546470030313233343536373839C4
:1040500041424344454600303132333435363738F7
:1040600039616263646566000020202020202020E2
:104070002020282828282820202020202020202018
:104080002020202020202020208810101010101028
:104090001010101010101010100404040404040474
:1040A000040404101010101010104141414141410E
:1040B00001010101010101010101010101010101F0
:1040C0000101010110101010101042424242424200
:1040D00002020202020202020202020202020202C0
:1040E0000202020210101010200000000000000068
:1040F00000000000000000000000000000000000C0
:1041000000000000000000000000000000000000AF
:10411000000000000000000000000000000000009F
:10412000000000000000000000000000000000008F
:10413000000000000000000000000000000000007F
:10414000000000000000000000000000000000006F
:10415000000000000000000000000000000000005F
:104160000000000000000000007371727400000085
:04417000350100080D
:04417400110100082D
:1041780001000000100000002454454D502C0000A0
:104188000000000000000000000000000000000027
:104198000000000000000000000000000000000017
:1041A8000000000000000000000000000000000007
:1041B80000000000000000000000000000000000F7
:1041C80000000000000000000000000000000000E7
:1041D80000000000000000000000000000000000D7
:1041E80000000000000000000000000000000000C7
:1041F800000000000000000000A24A049000002017
:1042080000000000000000000000000000000000A6
:104218000000000000000000000000000000000096
:104228000000000000000000000000000000000086
:104238000000000000000000000000000000000076
:104248000000000000000000000000000000000066
:104258000000000000000000000000000000000056
:104268004300000000000000000000000000000003
:104278000000000000000000000000000000000036
:1042880043000000000000000000000000000000E3
:104298000000000000000000000000000000000016
:1042A80043000000000000000000000000000000C3
:1042B80000000000000000000000000000000000F6
:1042C80043000000000000000000000000000000A3
:1042D80000000000000000000000000000000000D6
:1042E8004300000000000000000000000000000083
:1042F80000000000000000000000000000000000B6
:104308004300000000000000000000000000000062
:104318000000000000000000000000000000000095
:104328004300000000000000000000000000000042
:104338000000000000000000000000000000000075
:10434800193B0008273500080000000068400008F5
:1043580033400008DD3F0008DD3F0008DD3F00086E
:10436800DD3F0008DD3F0008DD3F0008DD3F0008B5
:10437800DD3F0008DD3F0008FFFFFFFFFFFFFFFFF5
:10438800FFFFFFFFFFFF00000100415343494900C1
:104398000000000000000000000000000000000015
:1043A800000000000000000000004153434949009C
:1043B80000000000000000000000000000000000F5
:1043C80000000000000000000000000001000000E4
:04000005080032813C
:00000001FF
