:020000040800F2
:1000000000500020AD2E0008352E0008372E0008C5
:10001000392E00083B2E00083D2E0008000000008D
:100020000000000000000000000000003F2E00085B
:10003000412E000800000000432E0008452E000855
:10004000F52E0008F52E0008F52E0008F52E000804
:10005000F52E0008F52E0008F52E0008F52E0008F4
:10006000F52E0008F52E0008F52E0008F52E0008E4
:10007000F52E0008F52E0008F52E0008F52E0008D4
:10008000F52E0008F52E0008F52E0008F52E0008C4
:10009000F52E0008F52E0008F52E0008F52E0008B4
:1000A000F52E0008F52E0008F52E0008F52E0008A4
:1000B000F52E0008F52E0008F52E0008F52E000894
:1000C000F52E0008F52E0008F52E0008F52E000884
:1000D000F52E0008F52E0008552E0008F52E000814
:1000E000F52E0008F52E0008F52E0008000000008F
:1000F0000000000000000000000000000000000000
:0C01000000000000000000005FF808F1A3
:1001100010B5054C237833B9044B13B10448AFF341
:1001200000800123237010BD740000200000000037
:100130006031000808B5034B1BB103490348AFF316
:10014000008008BD00000000780000206031000839
:1001500081F0004102E000BF83F0004330B54FEA78
:1001600041044FEA430594EA050F08BF90EA020FE5
:100170001FBF54EA000C55EA020C7FEA645C7FEA78
:10018000655C00F0E2804FEA5454D4EB5555B8BF9B
:100190006D420CDD2C4480EA020281EA030382EA0C
:1001A000000083EA010180EA020281EA0303362D9E
:1001B00088BF30BD11F0004F4FEA01314FF4801C71
:1001C0004CEA113102D0404261EB410113F0004F83
:1001D0004FEA03334CEA133302D0524263EB43033A
:1001E00094EA050F00F0A780A4F10104D5F1200ED8
:1001F0000DDB02FA0EFC22FA05F2801841F1000133
:1002000003FA0EF2801843FA05F359410EE0A5F106
:1002100020050EF1200E012A03FA0EFC28BF4CF037
:10022000020C43FA05F3C01851EBE37101F00045ED
:1002300007D54FF0000EDCF1000C7EEB00006EEBFA
:100240000101B1F5801F1BD3B1F5001F0CD3490884
:100250005FEA30004FEA3C0C04F101044FEA4452DB
:1002600012F5800F80F09A80BCF1004F08BF5FEA62
:10027000500C50F1000041EB045141EA050130BD42
:100280005FEA4C0C404141EB010111F4801FA4F1E5
:100290000104E9D191F0000F04BF01460020B1FA3A
:1002A00081F308BF2033A3F10B03B3F120020CDA72
:1002B0000C3208DD02F1140CC2F10C0201FA0CF050
:1002C00021FA02F10CE002F11402D8BFC2F1200CB5
:1002D00001FA02F120FA0CFCDCBF41EA0C0190406B
:1002E000E41AA2BF01EB0451294330BD6FEA0404B4
:1002F0001F3C1CDA0C340EDC04F11404C4F120029F
:1003000020FA04F001FA02F340EA030021FA04F3B0
:1003100045EA030130BDC4F10C04C4F1200220FA07
:1003200002F001FA04F340EA0300294630BD21FA45
:1003300004F0294630BD94F0000F83F4801306BF0B
:1003400081F480110134013D4EE77FEA645C18BFFF
:100350007FEA655C29D094EA050F08BF90EA020F96
:1003600005D054EA000C04BF1946104630BD91EA8E
:10037000030F1EBF0021002030BD5FEA545C05D191
:100380004000494128BF41F0004130BD14F58004D0
:100390003CBF01F5801130BD01F0004545F0FE4144
:1003A00041F470014FF0000030BD7FEA645C1ABF79
:1003B000194610467FEA655C1CBF0B46024650EAB0
:1003C000013406BF52EA033591EA030F41F40021DC
:1003D00030BD00BF90F0000F04BF0021704730B562
:1003E0004FF4806404F132044FF000054FF0000137
:1003F00050E700BF90F0000F04BF0021704730B5F8
:100400004FF4806404F1320410F0004548BF4042CC
:100410004FF000013EE700BF42004FEAE2014FEA21
:1004200031014FEA02701FBF12F07F4393F07F4FFC
:1004300081F06051704792F0000F14BF93F07F4F2E
:10044000704730B54FF4607401F0004521F0004171
:1004500020E700BF50EA010208BF704730B54FF0F7
:1004600000050AE050EA010208BF704730B511F0FC
:10047000004502D5404261EB41014FF4806404F134
:1004800032045FEA915C3FF4DCAE4FF003025FEAB6
:10049000DC0C18BF03325FEADC0C18BF033202EB3E
:1004A000DC02C2F1200300FA03FC20FA02F001FA98
:1004B00003FE40EA0E0021FA02F11444C1E600BF37
:1004C00070B54FF0FF0C4CF4E06C1CEA11541DBFEA
:1004D0001CEA135594EA0C0F95EA0C0F00F0DEF8B5
:1004E0002C4481EA030621EA4C5123EA4C5350EA9A
:1004F000013518BF52EA033541F4801143F48013EB
:1005000038D0A0FB02CE4FF00005E1FB02E506F07B
:100510000042E0FB03E54FF00006E1FB03569CF0D0
:10052000000F18BF4EF0010EA4F1FF04B6F5007FD6
:1005300064F5407404D25FEA4E0E6D4146EB060648
:1005400042EAC62141EA55514FEAC52040EA5E50D1
:100550004FEACE2EB4F1FD0C88BFBCF5E06F1ED87B
:10056000BEF1004F08BF5FEA500E50F1000041EBB2
:10057000045170BD06F0004646EA010140EA02005F
:1005800081EA0301B4EB5C04C2BFD4EB0C0541EA81
:10059000045170BD41F480114FF0000E013C00F396
:1005A000AB8014F1360FDEBF002001F0004170BDBA
:1005B000C4F10004203C35DA0C341BDC04F11404D3
:1005C000C4F1200500FA05F320FA04F001FA05F25F
:1005D00040EA020001F0004221F0004110EBD3702C
:1005E00021FA04F642EB06015EEA430E08BF20EA58
:1005F000D37070BDC4F10C04C4F1200500FA04F3FB
:1006000020FA05F001FA04F240EA020001F000418C
:1006100010EBD37041F100015EEA430E08BF20EAFF
:10062000D37070BDC4F1200500FA05F24EEA020E47
:1006300020FA04F301FA05F243EA020321FA04F076
:1006400001F0004121FA04F220EA020000EBD3702D
:100650005EEA430E08BF20EAD37070BD94F0000F2D
:100660000FD101F00046400041EB010111F4801F61
:1006700008BF013CF7D041EA060195F0000F18BF12
:10068000704703F00046520043EB030313F4801F4E
:1006900008BF013DF7D043EA0603704794EA0C0F08
:1006A0000CEA135518BF95EA0C0F0CD050EA41061E
:1006B00018BF52EA4306D1D181EA030101F000419B
:1006C0004FF0000070BD50EA410606BF10461946C3
:1006D00052EA430619D094EA0C0F02D150EA0136CF
:1006E00013D195EA0C0F05D152EA03361CBF104610
:1006F00019460AD181EA030101F0004141F0FE41AF
:1007000041F470014FF0000070BD41F0FE4141F432
:10071000780170BD70B54FF0FF0C4CF4E06C1CEA32
:1007200011541DBF1CEA135594EA0C0F95EA0C0FE7
:1007300000F0A7F8A4EB050481EA030E52EA0335A2
:100740004FEA013100F088804FEA03334FF08055C3
:1007500045EA131343EA12634FEA022245EA1115F0
:1007600045EA10654FEA00260EF000419D4208BFA1
:10077000964244F1FD0404F5407402D25B084FEA4E
:100780003202B61A65EB03055B084FEA32024FF4FA
:1007900080104FF4002CB6EB020E75EB030E22BF57
:1007A000B61A754640EA0C005B084FEA3202B6EB17
:1007B000020E75EB030E22BFB61A754640EA5C00C6
:1007C0005B084FEA3202B6EB020E75EB030E22BF56
:1007D000B61A754640EA9C005B084FEA3202B6EB57
:1007E000020E75EB030E22BFB61A754640EADC0016
:1007F00055EA060E18D04FEA051545EA16754FEA78
:1008000006164FEAC30343EA52734FEAC2025FEA95
:100810001C1CC0D111F4801F0BD141EA00014FF024
:1008200000004FF0004CB6E711F4801F04BF0143F5
:100830000020B4F1FD0C88BFBCF5E06F3FF6AFAE11
:10084000B5EB030C04BFB6EB020C5FEA500C50F1A1
:10085000000041EB045170BD0EF0004E4EEA113124
:1008600014EB5C04C2BFD4EB0C0541EA045170BD2B
:1008700041F480114FF0000E013C90E645EA060E6F
:100880008DE60CEA135594EA0C0F08BF95EA0C0F9D
:100890003FF43BAF94EA0C0F0AD150EA01347FF4E5
:1008A00034AF95EA0C0F7FF425AF104619462CE7BC
:1008B00095EA0C0F06D152EA03353FF4FDAE10461F
:1008C000194622E750EA410618BF52EA43067FF470
:1008D000C5AE50EA41047FF40DAF52EA43057FF400
:1008E000EBAE12E74FF0FF3C06E000BF4FF0010C0B
:1008F00002E000BF4FF0010C4DF804CD4FEA410C6F
:100900007FEA6C5C4FEA430C18BF7FEA6C5C1BD03B
:1009100001B050EA410C0CBF52EA430C91EA030FBC
:1009200002BF90EA020F0020704710F1000F91EA19
:10093000030F58BF994208BF90422CBFD8176FEAE7
:10094000E37040F0010070474FEA410C7FEA6C5CB5
:1009500002D150EA013C07D14FEA430C7FEA6C5CBC
:10096000D6D152EA033CD3D05DF8040B704700BFE8
:100970008446104662468C461946634600E000BF36
:1009800001B5FFF7B7FF002848BF10F1000F01BD08
:100990004DF808EDFFF7F4FF0CBF012000205DF8D3
:1009A00008FB00BF4DF808EDFFF7EAFF34BF012058
:1009B00000205DF808FB00BF4DF808EDFFF7E0FFF1
:1009C00094BF012000205DF808FB00BF4DF808ED42
:1009D000FFF7CEFF94BF012000205DF808FB00BFA9
:1009E0004DF808EDFFF7C4FF34BF012000205DF88B
:1009F00008FB00BF4FEA410C7FEA6C5C02D150EA71
:100A0000013C0AD14FEA430C7FEA6C5C02D152EA06
:100A1000033C02D14FF0000070474FF001007047D7
:100A20004FEA410212F5001215D211D56FF4787316
:100A3000B3EB625212D94FEAC12343F0004343EAB9
:100A4000505311F0004F23FA02F018BF4042704794
:100A50004FF00000704750EA013005D111F000401E
:100A600008BF6FF0004070474FF00000704700BFB4
:100A70004FEA4102B2F1E04324BFB3F5001CDCF1C0
:100A8000FE5C0DD901F0004C4FEAC0024CEA5070F8
:100A9000B2F1004F40EB830008BF20F00100704727
:100AA00011F0804F21D113F13872BCBF01F000402A
:100AB000704741F480114FEA5252C2F11802C2F15C
:100AC000200C10FA0CF320FA02F018BF40F00100DD
:100AD0004FEAC1234FEAD32303FA0CFC40EA0C008F
:100AE00023FA02F34FEA4303CCE77FEA625307D1CC
:100AF00050EA01331EBF4FF0FE4040F44000704703
:100B000001F0004040F0FE4040F40000704700BF9C
:100B100080F0004002E000BF81F0004142001FBFB2
:100B20005FEA410392EA030F7FEA226C7FEA236CBB
:100B30006AD04FEA1262D2EB1363C1BFD2184140B0
:100B400048404140B8BF5B42192B88BF704710F046
:100B5000004F40F4000020F07F4018BF404211F0E9
:100B6000004F41F4000121F07F4118BF494292EA51
:100B7000030F3FD0A2F1010241FA03FC10EB0C007D
:100B8000C3F1200301FA03F100F0004302D549420A
:100B900060EB4000B0F5000F13D3B0F1807F06D3B7
:100BA00040084FEA310102F10102FE2A51D2B1F1AF
:100BB000004F40EBC25008BF20F0010040EA0300A4
:100BC0007047490040EB000010F4000FA2F1010251
:100BD000EDD1B0FA80FCACF1080CB2EB0C0200FADB
:100BE0000CF0AABF00EBC25052421843BCBFD04029
:100BF0001843704792F0000F81F4000106BF80F4A3
:100C000000000132013BB5E74FEA41037FEA226C65
:100C100018BF7FEA236C21D092EA030F04D092F030
:100C2000000F08BF0846704790EA010F1CBF002064
:100C3000704712F07F4F04D1400028BF40F00040C1
:100C4000704712F100723CBF00F50000704700F0E1
:100C5000004343F0FE4040F4000070477FEA226208
:100C600016BF08467FEA23630146420206BF5FEAD9
:100C7000412390EA010F40F4800070474FF00003D9
:100C800004E000BF10F0004348BF40425FEA000CA0
:100C900008BF704743F0964301464FF000001CE048
:100CA00050EA010208BF70474FF000030AE000BF9E
:100CB00050EA010208BF704711F0004302D54042DC
:100CC00061EB41015FEA010C02BF8446014600204E
:100CD00043F0B64308BFA3F18053A3F50003BCFA69
:100CE0008CF2083AA3EBC25310DB01FA02FC634416
:100CF00000FA02FCC2F12002BCF1004F20FA02F21D
:100D000043EB020008BF20F00100704702F120020F
:100D100001FA02FCC2F1200250EA4C0021FA02F270
:100D200043EB020008BF20EADC7070474FF0FF0C75
:100D30001CEAD0521EBF1CEAD15392EA0C0F93EA70
:100D40000C0F6FD01A4480EA010C400218BF5FEA12
:100D500041211ED04FF0006343EA501043EA511185
:100D6000A0FB01310CF00040B1F5000F3EBF49007F
:100D700041EAD3715B0040EA010062F17F02FD2A83
:100D80001DD8B3F1004F40EBC25008BF20F0010066
:100D9000704790F0000F0CF0004C08BF49024CEA7D
:100DA000502040EA51207F3AC2BFD2F1FF0340EA0F
:100DB000C250704740F400004FF00003013A5DDC80
:100DC00012F1190FDCBF00F000407047C2F10002C1
:100DD000410021FA02F1C2F1200200FA02FC5FEAAE
:100DE000310040F1000053EA4C0308BF20EADC70F8
:100DF000704792F0000F00F0004C02BF400010F46A
:100E0000000F013AF9D040EA0C0093F0000F01F016
:100E1000004C02BF490011F4000F013BF9D041EA38
:100E20000C018FE70CEAD15392EA0C0F18BF93EA3A
:100E30000C0F0AD030F0004C18BF31F0004CD8D164
:100E400080EA010000F00040704790F0000F17BFEB
:100E500090F0004F084691F0000F91F0004F14D031
:100E600092EA0C0F01D142020FD193EA0C0F03D189
:100E70004B0218BF084608D180EA010000F000408C
:100E800040F0FE4040F40000704740F0FE4040F467
:100E9000400070474FF0FF0C1CEAD0521EBF1CEA06
:100EA000D15392EA0C0F93EA0C0F69D0A2EB030224
:100EB00080EA010C49024FEA402037D04FF08053BE
:100EC00043EA111143EA10130CF000408B4238BF83
:100ED0005B0042F17D024FF4000C8B4224BF5B1A91
:100EE00040EA0C00B3EB510F24BFA3EB510340EADF
:100EF0005C00B3EB910F24BFA3EB910340EA9C008D
:100F0000B3EBD10F24BFA3EBD10340EADC001B01FC
:100F100018BF5FEA1C1CE0D1FD2A3FF650AF8B42A0
:100F200040EBC25008BF20F0010070470CF0004CAD
:100F30004CEA50207F32C2BFD2F1FF0340EAC250D8
:100F4000704740F400004FF00003013A37E792F099
:100F5000000F00F0004C02BF400010F4000F013AF7
:100F6000F9D040EA0C0093F0000F01F0004C02BFF2
:100F7000490011F4000F013BF9D041EA0C0195E75B
:100F80000CEAD15392EA0C0F08D142027FF47DAFF4
:100F900093EA0C0F7FF470AF084676E793EA0C0FE4
:100FA00004D14B023FF44CAF08466EE730F0004CE2
:100FB00018BF31F0004CCAD130F000427FF45CAF72
:100FC00031F000437FF43CAF5FE700BF4FF0FF3CE0
:100FD00006E000BF4FF0010C02E000BF4FF0010C33
:100FE0004DF804CD4FEA40024FEA41037FEA226CFC
:100FF00018BF7FEA236C11D001B052EA530C18BF1E
:1010000090EA010F58BFB2EB030088BFC81738BF82
:101010006FEAE17018BF40F0010070477FEA226C70
:1010200002D15FEA402C05D17FEA236CE4D15FEA6C
:10103000412CE1D05DF8040B704700BF84460846A0
:101040006146FFE70FB5FFF7C9FF002848BF10F161
:10105000000F0FBD4DF808EDFFF7F4FF0CBF0120A6
:1010600000205DF808FB00BF4DF808EDFFF7EAFF30
:1010700034BF012000205DF808FB00BF4DF808EDEB
:10108000FFF7E0FF94BF012000205DF808FB00BFE0
:101090004DF808EDFFF7D2FF94BF012000205DF866
:1010A00008FB00BF4DF808EDFFF7C8FF34BF012073
:1010B00000205DF808FB00BF38B50E4B05461878D8
:1010C0004FF47A73B3FBF0F30B4A1068B0FBF3F004
:1010D00000F09EF8044658B90F2D09D8024629465B
:1010E0004FF0FF3000F054F8044B20461D6038BD2F
:1010F000012038BD0000002008000020040000206E
:10110000074A08B51368032043F01003136000F08A
:101110002DF80020FFF7D0FF01F0DEFD002008BD14
:1011200000200240034A044B11681B780B441360F3
:10113000704700BF9800002000000020014B186895
:10114000704700BF9800002038B50446FFF7F6FF4F
:101150000546631C1EBF044B1B78E418FFF7EEFF27
:10116000401B8442FAD838BD00000020074A000224
:10117000D36800F4E06023F4E0631B041B0C43F02D
:10118000BF6343F400330343D360704700ED00E0D6
:10119000174B30B5DC68C4F30224C4F10703251DE6
:1011A000042B28BF0423062D4FF0010598BF00240F
:1011B00005FA03F303F1FF3388BF033C1940A14054
:1011C00005FA04F4013C2240002842EA01024FEAF9
:1011D0000212AFBF00F16040064B00F00F00D2B228
:1011E000A5BFD2B200F561401A5480F8002330BD8B
:1011F00000ED00E014ED00E00123420900F01F00C3
:1012000003FA00F0014B43F82200704700E100E0D0
:101210000138B0F1807F0AD2F021064B064A5860AF
:1012200082F823100020072298601A60704701207E
:10123000704700BF10E000E000ED00E0044B042820
:101240001A680CBF42F0040222F004021A607047D0
:1012500010E000E0704708B5FFF7FCFF08BD000094
:1012600090F8213010B5022B03D0042383630120B2
:1012700010BD03681A6822F00E021A601A6822F084
:1012800001021A60184A93421FD0143293421ED0B2
:10129000143293421DD0143293421DD01432934223
:1012A0001DD0143293420CBF4FF480134FF0807363
:1012B0000E4A00245360012380F82130436B80F8EC
:1012C00020407BB19847204610BD0123F0E7102352
:1012D000EEE74FF48073EBE74FF48053E8E74FF409
:1012E0008033E5E7184610BD0800024000000240C8
:1012F0002DE9F74F00221646654BDFF8A4E1DFF831
:10130000A4C14FF001080C6808FA06F808EA0404C2
:10131000A0457FD14D68122D00F0AF8000F288808B
:10132000022D00F0A7807CD8002D00F08E80012DCA
:1013300000F09E804FF00F09FF2C93BF824606F10C
:101340008045083DD0F800B092BFB500D0F804B099
:10135000AD0009FA05F82BEA080802FA05F588BF7E
:1013600000F1040A48EA0505CAF80050D1F804A0C3
:101370001AF0805F4ED0474D464FAD6926F0030806
:1013800045F00105BD61BD6908F1804805F0010522
:10139000019508F5803806F0030B019D4FEA8B0B91
:1013A000D8F8085009FA0BF925EA09093A4DA8427C
:1013B00068D005F58065A84266D005F58065A8422D
:1013C00064D005F58065A8420CBF0325042505FA05
:1013D0000BF545EA0905C8F808501D681AF4803F66
:1013E00014BF2543A5431D605D681AF4003F14BF78
:1013F0002543A5435D609D681AF4801F14BF2543F3
:10140000A5439D60DD681AF4001F14BF2C4325EA34
:101410000404DC600136102E7FF473AF03B0BDE826
:10142000F08F032D22D0112D84D1CA68043281E7B8
:101430001A4FBD4209D012D8DFF86C904D4504D048
:1014400009F580394D457FF475AF8A68C2B1012A2C
:101450000CBFC0F81080C0F8148008226AE77545F8
:10146000F3D06545F1D0DFF84490EBE7002261E767
:10147000CA685FE7CA6808325CE7CA680C3259E795
:10148000042257E70025A2E70125A0E702259EE7F1
:10149000000401400010024000080140000021103B
:1014A0000000311000003210000011100000221066
:1014B0000AB1016170470904FBE7000003682DE9E8
:1014C000F341DB07054610D42B689F075ED42B68D9
:1014D000190700F195802B685A0700F1BF80EA696F
:1014E000002A40F02D81002014E0904C636803F046
:1014F0000C03042B07D0636803F00C03082B0CD1FA
:101500006368DE0309D523689C03DDD56B68002B77
:10151000DAD1012002B0BDE8F0816B68B3F5803FFD
:1015200010D1236843F480332360FFF707FE06469B
:1015300023689803C8D4FFF701FE801B6428F7D9FD
:101540000320E7E79BB9236823F4803323602368F3
:1015500023F480232360FFF7F1FD064623689903F7
:10156000B2D5FFF7EBFD801B6428F7D9E8E7B3F5A8
:10157000A02F236803D143F480232360D1E723F411
:1015800080332360236823F48023CDE7674C6368AE
:1015900013F00C0F07D0636803F00C03082B10D175
:1015A0006368DA030DD423689B0702D52B69012BEE
:1015B000AFD123686A6923F0F80343EAC2032360CA
:1015C00085E72A695A4B6AB101221A60FFF7B6FD16
:1015D000064623689F07ECD4FFF7B0FD801B022866
:1015E000F7D9ADE71A60FFF7A9FD0646236898070B
:1015F0007FF56DAFFFF7A2FD801B0228F6D99FE7AC
:10160000AA694A4C4B4BDAB101221A60FFF796FDEA
:101610000646636A9B070DD54FF4FA52464B1B688A
:10162000B3FBF2F3019300BF019B5A1E0192002B02
:10163000F9D150E7FFF782FD801B0228E9D97FE747
:101640001A60FFF77BFD0646636A9F077FF543AF8D
:10165000FFF774FD801B0228F6D971E7334CE3696C
:10166000D80024D40127E36943F08053E361E369A0
:1016700003F080530093009B304E3368D90518D592
:10168000EB68012B26D1236A43F001032362FFF7A5
:1016900055FD41F288368046236A9B073FD5002FCF
:1016A0003FF41DAFE36923F08053E36117E70027A0
:1016B000E2E7336843F480733360FFF73FFD804611
:1016C0003368DA05DCD4FFF739FDA0EB08006428A5
:1016D000F6D935E7ABB9236A41F2883823F0010324
:1016E0002362236A23F004032362FFF727FD0646E3
:1016F000236A9807D3D5FFF721FD801B4045F7D912
:101700001EE7052B236A03D143F004032362BAE7E3
:1017100023F001032362236A23F00403B6E7FFF7F3
:101720000DFDA0EB0800B042B6D909E70010024059
:101730000000424280044242080000200070004045
:10174000224C636803F00C03082B3FF4E2AE002345
:101750001F4E022A33602BD1FFF7F0FC07462368A7
:1017600099011FD42B6AB3F5803F05D16268A9683F
:1017700022F400320A436260696A62680B4322F411
:1017800074121343636001233360FFF7D7FC0546EF
:1017900023689A013FF5A7AEFFF7D0FC401B022853
:1017A000F6D9CDE6FFF7CAFCC01B0228D7D9C7E699
:1017B000FFF7C4FC054623689B017FF594AEFFF755
:1017C000BDFC401B0228F6D9BAE600BF001002405B
:1017D0006000424230B5194B87B002AC03F11005EE
:1017E000224618685968083303C2AB421446F7D141
:1017F00001238DF80430022311498DF805304B6820
:1018000003F00C02082A17D1C3F3834206A802444E
:10181000DB0312F8102C0CD54B680A48C3F3404385
:10182000504306AA134413F8143CB0FBF3F007B07E
:1018300030BD05485043FAE70248F8E77831000820
:101840000010024000127A0000093D004D4A2DE9C7
:10185000F0411368054603F007038B420E4628D378
:101860002A68910732D4D20738D4464A136803F065
:1018700007039E4273D32A68434C12F0040F79D1B8
:10188000130706D563682A6923F4605343EAC20349
:101890006360FFF79FFF63683C4AC3F30313D35CA5
:1018A000D8403B4B18600020FFF706FC0020BDE845
:1018B000F081136823F007030B431360136803F0F0
:1018C00007039942CCD00120BDE8F0812E49A868D9
:1018D0004B6823F0F00303434B60C4E76A682A4C6B
:1018E000012A23681CD113F4003FECD0636841F255
:1018F000883823F0030313436360FFF71FFC6B6812
:101900000746012B14D1636803F00C03042BACD001
:10191000FFF714FCC01B4045F5D90320BDE8F0815A
:10192000022A02D113F0007FDFE713F0020FDCE799
:10193000022B0FD1636803F00C03082B95D0FFF73F
:10194000FDFBC01B4045F5D9E7E7FFF7F7FBC01BE0
:101950004045E2D8636813F00C0FF6D185E71368B1
:1019600023F0070333431360136803F007039E4219
:10197000A9D180E76368E96823F4E0630B436360FF
:101980007EE700BF00200240001002408F310008B7
:1019900008000020014B1868704700BF08000020B5
:1019A000044B054A5B68C3F30223D35C034A106807
:1019B000D8407047001002409F3100080800002006
:1019C000044B054A5B68C3F3C223D35C034A106827
:1019D000D8407047001002409F31000808000020E6
:1019E0002DE9F0410446884617461D46069E2268AA
:1019F000936838EA03030CBF012300239F4202D1FE
:101A00000020BDE8F0816B1CF2D055BB23685A68FA
:101A100022F0E0025A606268B2F5827F0AD1A268C1
:101A2000B2F5004F02D0B2F5806F03D11A6822F0F0
:101A300040021A60A26AB2F5005F09D11A6822F466
:101A400000521204120C1A601A6842F400521A6012
:101A5000012384F851300023032084F85030BDE87E
:101A6000F081FFF76BFB801B8542C0D8CEE713B532
:101A70000B460092802100220446FFF7B1FF20B1FF
:101A80000320636D43F02003636502B010BD2DE9B0
:101A9000FF411E4690F850300446012B0D469046FB
:101AA00000F09C80012380F85030FFF747FB074689
:101AB00094F85100C0B2012840F08E80002D4ED025
:101AC000B8F1000F4BD0032384F851300023636535
:101AD000A363A4F83680A387E38763642364A368C1
:101AE0002563B3F5004F2368A4F8348002BF1A6859
:101AF00042F480421A601A6852065EBF1A6842F0C9
:101B000040021A60E268B2F5006F626838D11AB11B
:101B1000E28E92B2012A06D135F8022BDA60E38E0A
:101B2000013B9BB2E386E38E9BB293B900973346A9
:101B3000012202212046FFF753FF78B93A46314689
:101B40002046FFF794FF002838D02023012063654A
:101B500005E023689A689007DED44EB9032001237C
:101B600084F85130002384F8503004B0BDE8F0818F
:101B7000711CD8D0FFF7E2FAC01B8642D3D8EDE73C
:101B80001AB1E28E92B2012A06D115F8012B1A730E
:101B9000E38E013B9BB2E386E38E9BB2002BC5D064
:101BA00023689A689207F0D4002ED7D0731CF3D024
:101BB000FFF7C4FAC01B8642EED8CFE7A36833B95B
:101BC00003932368DA6803929B680393039B606D19
:101BD000003018BF0120C2E70220C0E70220C4E79E
:101BE0002DE9F043994690F8503085B0012B04461A
:101BF0000D4616460C9F00F0EE80012380F8503011
:101C0000FFF79CFA94F851308046DBB2012B6168F3
:101C10000AD0B1F5827F40F0DC80A268002A40F053
:101C2000D880042B40F0D580002D4ED0002E4CD013
:101C3000B9F1000F49D094F85130A663012B04BFCD
:101C4000052384F8513000236365236463642368AB
:101C5000A4F83E90A4F836901A68A4F83C90500678
:101C600058BF1A68256358BF42F04002A4F8349068
:101C700058BF1A60E268B2F5006F5DD119B1E28E0B
:101C800092B2012A06D135F8022BDA60E38E013BCD
:101C90009BB2E3864FF00109E38E9BB2BBB9E38FA1
:101CA0009BB2A3B9CDF800803B4601220221204619
:101CB000FFF796FE002835D1424639462046FFF709
:101CC000D6FE00287AD02023636501202BE0B9F1ED
:101CD000000F0FD0E38E9BB263B123689A6891071F
:101CE00008D54FF0000935F8022BDA60E38E013B8E
:101CF0009BB2E386E38F9BB263B123689A68D207F5
:101D000008D54FF00109DB6826F8023BE38F013B61
:101D10009BB2E387781CBFD0FFF710FAA0EB080056
:101D20008742B9D80320012384F85130002384F876
:101D3000503005B0BDE8F08319B1E28E92B2012AAD
:101D400006D115F8012B1A73E38E013B9BB2E38693
:101D50004FF00109E38E9BB21BB9E38F9BB2002BBE
:101D6000A0D0B9F1000F0FD0E38E9BB263B123680E
:101D70009A68910708D54FF000092A7801351A733F
:101D8000E38E013B9BB2E386E38F9BB26BB123688A
:101D90009A68D20709D54FF00109DB68013606F8C9
:101DA000013CE38F013B9BB2E3877B1CD2D0FFF762
:101DB000C5F9A0EB08008742CCD8B3E7A368002B95
:101DC000B1D123680390DA6803929B680393039B65
:101DD000A9E70220A7E70220ABE72DE9F3411E4661
:101DE00043680446B3F5827F0D4690460CD1836864
:101DF00053B9042380F85130134600960A46FFF782
:101E0000EFFE02B0BDE8F08194F85030012B00F0F5
:101E10008180012384F85030FFF790F9074694F849
:101E20005100C0B2012873D1002D58D0B8F1000F75
:101E300055D0042384F85130002363652363A4F84C
:101E40003E80A386E38623646364A368A563B3F539
:101E5000004F2368A4F83C8002BF1A6822F4804235
:101E60001A601A6852065EBF1A6842F040021A6091
:101E7000E368CBB1E38F9BB2D3B123689A68D207F2
:101E80003CD5DB6825F8023BE38F013B9BB2E3873F
:101E9000F0E723689A68D0071FD51B7B05F8013B44
:101EA000E38F013B9BB2E387E38F9BB2002BF0D122
:101EB0006368B3F5827F0BD1A368B3F5004F02D0FE
:101EC000B3F5806F04D12268136823F040031360D8
:101ED000606D003018BF012001E03EB903200123EE
:101EE00084F85130002384F850308AE7711CDBD02D
:101EF000FFF724F9C01B8642D6D8EFE7002EEDD0BD
:101F0000731CB7D0FFF71AF9C01B8642B2D8E5E7B9
:101F10000220E4E7022074E790F85100704710B502
:101F20000446002834D00023836290F851300BB966
:101F300000F018FF0223216884F851300B68A06874
:101F400023F040030B606368A2690343E068034326
:101F50002069034360690343E0690343206A034344
:101F6000A06A034302F4007003430B60120C636A1F
:101F700002F004021A43E36A4A600B61CB69002055
:101F800023F40063CB610123606584F8513010BDF8
:101F9000012010BD0368DA6822F49072DA605A6991
:101FA00022F001025A61202380F83A307047000085
:101FB0002DE9F0470568C2682B69016923F4405395
:101FC00013432B618368EA680B43416922F4B052E2
:101FD00022F00C020B431343EB606B69826923F41C
:101FE000407313436B61404B81469D424FF019048F
:101FF00046D1FFF7E5FC04FB00F3D9F804604FF08D
:102000006408B600B3FBF6F3B3FBF8F31E01FFF769
:10201000D7FC6043D9F804309B00B0FBF3F7FFF71F
:10202000CFFC6043D9F804309B00B0FBF3F3B3FB63
:10203000F8F308FB13731B013233B3FBF8F303F01F
:10204000F007FFF7BDFC6043D9F804209200B0FB15
:10205000F2FAFFF7B5FC6043D9F804309B00B0FBFF
:10206000F3F3B3FBF8F308FB13A31B013233B3FB09
:10207000F8F303F00F033B433344AB60BDE8F08754
:10208000FFF78EFC04FB00F3D9F804604FF06408FE
:10209000B600B3FBF6F3B3FBF8F31E01FFF780FCC9
:1020A0006043D9F804309B00B0FBF3F7FFF778FCEE
:1020B0006043D9F804309B00B0FBF3F3B3FBF8F3B3
:1020C00008FB13731B013233B3FBF8F303F0F00783
:1020D000FFF766FC6043D9F804209200B0FBF2FAE7
:1020E000FFF75EFCB7E700BF00380140F8B50446D3
:1020F0000E4617461D4621680B6836EA030301D1D8
:102100000020F8BD6B1CF7D095B923680320DA686E
:1021100022F4D072DA605A6922F001025A61202357
:1021200084F8393084F83A30002384F83830F8BD28
:10213000FFF704F8C01B8542DDD2E6E710B5044680
:1021400040B390F8393003F0FF021BB980F8382013
:1021500000F03CFE2423226884F83930D3682046FE
:1021600023F40053D360FFF723FF236800201A698C
:1021700022F490421A615A6922F02A025A61DA68FE
:1021800042F40052DA602023E06384F8393084F8A6
:102190003A3010BD012010BD2DE9F0411F4690F8E6
:1021A00039300446202B0D4690464ED1002949D0A7
:1021B000002A47D090F83830012B46D0012380F810
:1021C00038300023C363212380F83930FEF7B6FF8F
:1021D0000646A4F82480A4F82680E38C9BB26BB951
:1021E0003B46324640212046FFF780FFA8B9202316
:1021F00084F8380084F83930BDE8F081E38C324649
:10220000013B9BB2E384A3688021B3F5805F204645
:102210003B460ED1FFF76AFF10B10320BDE8F08105
:102220002B882268C3F308035360236943B902353E
:10223000D3E7FFF75BFF0028EFD123682A785A60C5
:102240000135CAE70120BDE8F0810220BDE8F08138
:102250007047704790F83A3010B5222B36D183681A
:102260000169B3F5805F0268836A23D15268E9B9D6
:10227000C2F3080223F8022B8362C48D013CA4B28E
:10228000C4858CB90368DA6822F02002DA60DA6863
:1022900022F48072DA605A6922F001025A61202326
:1022A00080F83A30FFF7D5FF002010BDD2B223F8F6
:1022B000012BE1E721B9591C526881621A70DCE7F1
:1022C0005268591C816202F07F02F7E7022010BDBC
:1022D00070470000036870B51A6804461607D9688D
:1022E0005D6907D196065AD58D0658D5BDE8704070
:1022F000FFF7B0BF15F0010502D111F4907F4ED069
:10230000D30705D5CE0542BFE36B43F00103E3637A
:10231000500704D51DB1E36B43F00203E363930759
:1023200004D51DB1E36B43F00403E363160704D542
:102330001DB1E36B43F00803E363E36B002B66D04E
:10234000950604D5880602D52046FFF783FF23684B
:1023500020465D69E26B110702D415F040051AD0E2
:10236000FFF718FE23685A69520610D55A69606B48
:1023700022F040025A6150B1254B4363FEF770FFD3
:10238000002844D0606BBDE87040436B184720467E
:10239000FFF79EFF70BDFFF79BFFE56370BD16065C
:1023A00027D50D0625D594F83920212A2FD1A268EA
:1023B000B2F5805F226A17D11188C1F30801596014
:1023C000216979B902322262E28C013A92B2E28446
:1023D000EAB9DA6822F08002DA60DA6842F0400294
:1023E000DA6070BD0132EEE7511C216212785A604A
:1023F000EAE750060BD54A0609D5DA68204622F0EE
:102400004002DA60202384F83930FFF721FF70BDE5
:102410001524000808B50023406AC385C384FFF76C
:1024200057FF08BD024B1A680AB11B68184770476E
:102430009000002000231A46F0B585B001AD5A5532
:1024400001330B2BFBD100230A26B0FBF6F706FB6A
:1024500017005A1C3030E854D4B238461FB10B2A4A
:102460001346F2D114468C4206D200260C1BF3B25E
:10247000A34206F101060BDB00242B19987A08B160
:10248000FFF7D0FF013C14F10B0FF6D105B0F0BD02
:102490003020FFF7C7FFEAE7F0B5054685B00846EC
:1024A00029B9114605B0BDE8F040FFF7C3BF0023CE
:1024B0009D4214BF3725572501AC019363602372F9
:1024C00000F00F01092994BF30314919E154072B5D
:1024D00003F101014FEA1010CEB201D1082602E04B
:1024E0000B460028ECD1B24206D90027951BFBB25F
:1024F000AB4207F101070BDB34440DF1030514F87F
:10250000010908B1FFF78EFFAC42F8D105B0F0BD6C
:102510003020FFF787FFEAE7F8B5074616460D4675
:1025200079B10C46022214F8011B3846FFF7B4FFBC
:1025300066B9237873B1631B9BB2B3F5805FF1D3A7
:10254000F8BD3F20BDE8F840FFF76CBF631B9BB2AE
:102550009E42E7D8F8BD0000054B1A7802F0FF0153
:10256000002AFAD101221A70024A106019707047CD
:1025700094000020900000200FB49C4A2DE9F04FF9
:1025800090468BB0149C9A4B117809B1013BFBD15A
:1025900001234FF0000A4FF0000B88F8003015AB14
:1025A0000193237833B988F800300BB0BDE8F04FC1
:1025B00004B07047252B1DD16578303DEBB2092B57
:1025C0009DBFA37805EB8505303B01349CBF0334E8
:1025D00003EB450523788CBF002505F0FF05642B30
:1025E0005AD015D8582B00F0A68008D8482B00F0F8
:1025F000F680013C14F8010BFFF714FFD1E7622BC2
:102600005FD0632BF5D1019B1A1D0192187833E03E
:10261000732B1BD00DD8662B00F09480682BE8D16B
:10262000019B00201A1D01922A461968FFF774FFCA
:102630002CE0752B3FD0782BDBD1019B00201A1D9D
:1026400001922A461968FFF727FF1FE0019BAEB2EF
:102650001A1D1B68019273B1002703F1FF3919F8A5
:10266000010F60B995B1BE4210D920200137FFF7A4
:10267000D9FEBFB2F7E73F20FFF7D4FE06E00137EF
:10268000FFF7D0FEBFB21DB1BE42E8D8013488E7E3
:10269000B7F5805FE3D1F9E7019B1E681A1D002E94
:1026A000019203DA2D20FFF7BDFE7642294630461F
:1026B000FFF7C0FEEAE7019B29461A1D0192186840
:1026C000F6E7019B1F681A1D019217B92946384683
:1026D000EEE702AE20220021304600F031FC00235C
:1026E00007F001023032F2541F2B03F101024FEACE
:1026F00057075FFA82F902D14FF0200902E0134632
:10270000002FEDD14D4507D90027A5EB0905FBB2F8
:10271000AB4207F101070ADB4E440DF1070516F83D
:10272000010908B1FFF77EFEAE42F8D1AEE73020D6
:10273000FFF778FEEBE7019B01201A1D0192196853
:102740002A4680E7019B073323F00703D3E900679C
:1027500003F10802394630460192FEF761F9054659
:10276000FDF748FE02460B4630463946FDF7F4FCBD
:10277000002D06460F4630DA2D20FFF753FE684243
:102780000021FFF757FE2E20FFF74CFE0025002208
:10279000184B30463946FDF793FE0F460646FEF7C6
:1027A0003FF98146FDF726FE02460B463046394684
:1027B000FDF7D2FC52465B4606460F46FEF7E8F8A8
:1027C00010B1002D7FF462AF013500214846EDB213
:1027D000FFF730FE062DDAD158E72846D0E7019BF7
:1027E00001201A1D019219682A461FE79400002053
:1027F00041420F000000244007B502A901F8010D75
:102800004FF47A7301220348FFF7C6FC03B05DF86A
:1028100004FB00BFF40000200A464FF0FF330146DE
:102820000148FFF734B900BF9C0000200A464FF072
:10283000FF3301460148FFF7D0BA00BF9C000020DB
:10284000F7B502AC04F8010D0D460F484FF4805166
:1028500016460022FEF72CFE01212046FFF7DCFF82
:102860000A4F3846FFF758FB01280446F9D1314694
:102870002846FFF7DBFF22464FF480510248FEF75F
:1028800017FE03B0F0BD00BF000801409C0000200F
:1028900037B50F4D02AC60F07F0004F8010D002247
:1028A0008DF8061028464FF48051FEF701FE2046B1
:1028B0000121FFF7B1FF0DF106000121FFF7ACFF89
:1028C00001224FF480512846FEF7F2FD03B030BDDF
:1028D0000008014000000000F8B50C4606464FF025
:1028E00060511046FEF722FA2146FEF71FFA054610
:1028F0003046FDF791FD02460B4655A1D1E9000196
:10290000FDF708FFFEF7B4F82946FEF70FFA624913
:10291000FEF704F9FDF780FD00F01AFB4EA3D3E9A2
:102920000023FDF719FC4EA3D3E90023FDF7F2FEC7
:10293000FEF79EF800210446FEF7AAFB002840F0AF
:10294000858031462846FEF7A5FA5449FEF7EEF990
:1029500001460446FEF7EAF905462046FDF75CFD10
:1029600041A3D3E90023FDF7ABFD41A3D3E9002345
:10297000FDF7F2FBFEF77CF8FDF74EFD0646284614
:102980000F46FDF749FD3CA3D3E90023FDF798FD71
:1029900002460B4630463946FDF7E0FB06460F4639
:1029A00020462946FEF7C2F9394605463046FEF76D
:1029B0005FF8FDF731FD064628460F46FDF72CFD72
:1029C0002FA3D3E90023FDF77BFD02460B463046DB
:1029D0003946FDF7C1FB06460F4620462946FEF75D
:1029E000A5F9394605463046FEF742F8FDF714FDD5
:1029F000064628460F46FDF70FFD23A3D3E9002323
:102A0000FDF75EFD02460B4630463946FDF7A4FB56
:102A100006460F4620462946FEF788F9FDF7FCFCDE
:102A20001BA3D3E90023FDF74BFD04460D463046BA
:102A30003946FEF71DF8FDF7EFFC02460B4620462F
:102A40002946FDF78BFBFEF713F804462046F8BD38
:102A500088CE19EEAF60C3BE000000402602703F72
:102A6000000000E0AF60B3BEF163CC5D4BC8014035
:102A7000000000E0A3406E40BB82C87D062F653F8A
:102A800093C266C7E03DD43ECE563151E2425E3E2F
:102A90003EFAE46127F3E43D178393370000C84210
:102AA00007B5B2210020FFF7F3FE6420FEF74CFBD0
:102AB00001A902220120FFF7C3FEBDF8040040BABD
:102AC000C0F34E00FEF7DAF8034902460348FFF769
:102AD00003FF03B05DF804FB0000D7430000C842C9
:102AE0004FF4803310B590B007930124002306A85B
:102AF00006940D93FEF7E2FC014600B1FEE70F23BA
:102B000003900490059001A802940193FEF79EFEA5
:102B1000044600B1FEE7FEF73DFF4FF47A73B0FBC9
:102B2000F3F0FEF775FB0420FEF788FB22462146F2
:102B30004FF0FF30FEF72CFB10B010BDF0B589B0A0
:102B4000FEF7DEFAFFF7CCFF584B4FF480519A693D
:102B5000574842F020029A619A69012402F020024B
:102B60000192019A9A694FF4827742F004029A61C5
:102B70009A6902F004020292029A9A6942F00802EB
:102B80009A619B69012203F008030393039BFEF7FC
:102B90008FFC00224FF440714648FEF789FC4FF449
:102BA00080530493032304A9414807930594FEF737
:102BB0009FFB4FF44073049302233E4804A90793FC
:102BC0000594FEF795FB3C483C4B4FF4007280E8BF
:102BD0008800002382618360C3600361382203623E
:102BE000436283620A234461C261C362FFF797F9BB
:102BF00000B1FEE74FF41652314B3249986083E83A
:102C000006000C22D86018619861D86118465A6194
:102C1000FFF794FA00B1FEE72B48FFF79DFC002573
:102C20002A4E2B4FFFF73CFF29460446FEF73AFA9F
:102C3000E8B139462046FEF717FAC0B101224FF439
:102C400080711C48FEF734FC00224FF400711948D3
:102C5000FEF72EFC2046FDF7DFFB02460B461D4823
:102C6000FFF78AFC4FF47A70FEF76EFADAE7314626
:102C70002046FEF717FA60B129462046FEF7F4F920
:102C800038B100224FF480710A48FEF711FC01228E
:102C9000DBE700224FF480710648FEF709FC0022B2
:102CA0004FF400710348FEF703FCDBE7001002401D
:102CB00000080140000C01409C0000200030014051
:102CC000F400002000440040F9270008000048C339
:102CD0000080544488310008204B07B59A690320CE
:102CE00042F001029A619B6903F001030193019B89
:102CF000FEF73CFA00226FF00B001146FEF748FA8F
:102D000000226FF00A001146FEF742FA00226FF02F
:102D100009001146FEF73CFA00226FF0040011464C
:102D2000FEF736FA00226FF003001146FEF730FA84
:102D300000226FF001001146FEF72AFA00224FF040
:102D4000FF301146FEF724FA054A536823F0E0638A
:102D500043F00073536003B05DF804FB00100240C1
:102D6000000001407FB50268154B9A4224D103F55B
:102D700060439A6902A942F480529A619B691148A2
:102D800003F480530193019B2823029302230393AE
:102D900003230593FEF7ACFA10230293002302A944
:102DA000084803930493FEF7A3FA074A536843F0D5
:102DB000E06343F00103536007B05DF804FB00BF1C
:102DC00000300140000C01400000014010B50268D5
:102DD000164B86B09A4226D103F5E633DA6902A98A
:102DE00042F40032DA61DB69114803F400330193E5
:102DF000019B042302930223039303230593FEF70D
:102E000077FA082300240DEB030109480293039489
:102E10000494FEF76DFA262022462146FEF7B8F903
:102E20002620FEF7E9F906B010BD00BF00440040BF
:102E3000000801407047FEE7FEE7FEE7FEE7704747
:102E40007047704708B5FEF76DF9BDE80840FEF71A
:102E500002BA00000148FFF73DBA00BFF4000020AD
:102E60000F4B1A6842F001021A6059680D4A0A4075
:102E70005A601A6822F0847222F480321A601A684A
:102E800022F480221A605A6822F4FE025A604FF43B
:102E90001F029A604FF00062034B9A60704700BFB8
:102EA000001002400000FFF800ED00E0002103E008
:102EB0000B4B5B58435004310A480B4B42189A4263
:102EC000F6D30A4A02E0002342F8043B084B9A4238
:102ED000F9D3FFF7C5FF00F00FF8FFF72FFE70479B
:102EE000B4310008000000207400002074000020AD
:102EF00034010020FEE7000070B500250C4E0D4C9B
:102F0000A41BA410A54209D100F02AF900250A4EFD
:102F10000A4CA41BA410A54205D170BD56F825305B
:102F200098470135EEE756F8253098470135F2E726
:102F3000AC310008AC310008AC310008B0310008F9
:102F400003460244934200D1704703F8011BF9E79E
:102F50002DE9F04F8BB004460D4600F04DF8244BA0
:102F6000804693F900A08946BAF1FF3F2BD0224654
:102F70002B4620462946FDF73DFD834618BB00261B
:102F8000002732463B4620462946FDF70BFDD0B1CF
:102F900001230093174BCDF820B00193CDE90445F0
:102FA000CDE90245BAF1000F12D1CDE906676846B6
:102FB00000F0CEF8B8B1089B1BB100F0CBF8089B2D
:102FC0000360DDE90689404649460BB0BDE8F08F55
:102FD00032463B4630463946FDF79CFBBAF1020FBC
:102FE000CDE90601E3D100F0B5F821230360E2E763
:102FF0000C000020A73100082DE9F041DFF84CE17A
:1030000006463EEA010E0D4607460A460C460346B2
:103010000FD102460B46FDF753FA02460B463046E7
:103020002946FDF79BF806460D4630462946BDE881
:10303000F08100290EDC21F0004E5EEA0707F4D093
:1030400041B102460B46FDF787F802460B46FDF7F5
:1030500061FBE8E712150CD1002C6ED00021E602CE
:103060006FD5481E121AC1F1200023FA00F0044364
:103070008B40A2F2FF32D5074FF00005C4F31304D2
:1030800044F4801442BF640004EBD3745B0004EB8F
:10309000D3715010214416222C464FF400165B00C9
:1030A000A7198F42DEBFC91BBC19AD194900013AEF
:1030B00001EBD3714FEA56064FEA4303F0D14FF0CC
:1030C000200E94464FF00046A14206EB0C0702DCAE
:1030D00012D19F4210D8002F07EB060C34DABCF156
:1030E000000F31DB04F10108091B44469F4288BFF1
:1030F00001F1FF31DB1B324401EBD377BEF1010E4E
:1031000039444FEA43034FEA5606DDD10B4306D05C
:10311000541C0BBF72460132013522F001026B10C4
:103120005208E90703F17F5303F5001348BF42F04B
:10313000004203EB0055164677E7DC0A153A5B05BB
:103140008AE7640001318AE7A046CDE70000F07FFE
:1031500000207047014B1868704700BF1000002026
:10316000F8B500BFF8BC08BC9E467047F8B500BF74
:08317000F8BC08BC9E46704744
:1031780002030405060708090A0B0C0D0E0F1010B0
:10318800242566200D0A0000000000000000000150
:103198000203040607080900000000010203047383
:0431A80071727400CC
:0431AC0035010008E1
:0431B0001101000801
:1031B400010000001000000000A24A040100000009
:1031C40014000020000000000000000000000000C7
:1031D40000000000000000000000000000000000EB
:1031E40000000000000000000000000000000000DB
:1031F40000000000000000000000000000000000CB
:1032040000000000000000000000000000000000BA
:1032140000000000000000000000000000000000AA
:0432240000000000A6
:0400000508002EAD14
:00000001FF
